:020000041100E9
:10000000D80900313116001109160011E11500114F
:100010000116001189100011A91800118116001194
:100020000000000000000000000000007916001130
:10003000B9100011000000002916001189160011E6
:100040001916001111160011591600110917001187
:100050001117001119170011000000000000000026
:1000600000000000F115001121160011F915001112
:10007000E10F0011000000009110001100000000CD
:100080001914001100000000000000000000000032
:100090000000000000000000000000000000000060
:1000A0000000000000000000000000002117001107
:1000B00099100011A11000110000000000000000C4
:1000C000011700116917001109180011E11700113B
:1000D00079180011E917001181180011F1170011AA
:1000E00089180011F917001191180011311700112A
:1000F000391700114117001149170011511700114C
:100100006117001111140011E915001129170011D0
:10011000A118001161160011691600117116001165
:1001200000000000A9100011B11000110000000033
:1001300000000000000000000000000000000000BF
:1001400000000000000000000000000000000000AF
:1001500000000000A114001129150011B1150011B3
:10016000D915001121140011591400116114001146
:100170006914001171140011791400118114001117
:1001800089140011911400119914001129140011FF
:1001900031140011391400114114001149140011D7
:1001A00051140011A9140011E1140011E9140011F7
:1001B000F1140011F91400110115001109150011B5
:1001C000111500111915001121150011B11400119C
:1001D000B9140011C1140011C9140011D114001177
:1001E000D914001131150011691500117115001194
:1001F0007915001181150011891500119115001153
:1002000099150011A1150011A9150011391500113A
:100210004115001149150011511500115915001112
:1002200061150011B9150011C1150011C915001192
:10023000D11500110118001199180011591700115A
:1002400000000000000000000000000000000000AE
:10025000000000000000000000000000000000009E
:10026000000000000000000000000000000000008E
:10027000000000000000000000000000000000007E
:10028000000000000000000000000000000000006E
:10029000000000000000000000000000000000005E
:1002A000000000000000000000000000000000004E
:1002B000000000000000000000000000000000003E
:1002C000000000000000000000000000000000002E
:1002D000000000000000000000000000000000001E
:1002E000000000000000000000000000000000000E
:1002F00000000000000000000000000000000000FE
:1003000000000000000000000000000000000000ED
:1003100000000000000000000000000000000000DD
:1003200000000000000000000000000000000000CD
:1003300000000000000000000000000000000000BD
:1003400000000000000000000000000000000000AD
:10035000000000000000000000000000000000009D
:10036000000000000000000000000000000000008D
:10037000000000000000000000000000000000007D
:10038000000000000000000000000000000000006D
:10039000000000000000000000000000000000005D
:1003A000000000000000000000000000000000004D
:1003B000000000000000000000000000000000003D
:1003C000B1180011B9180011C1180011C918001195
:1003D000D1180011D9180011E1180011E918001105
:1003E00000F002F800F048F80AA090E8000C8244FF
:1003F0008344AAF10107DA4501D100F03DF8AFF2DC
:10040000090EBAE80F0013F0010F18BFFB1A43F0F2
:1004100001031847481B0000681B0000103A24BF66
:1004200078C878C1FAD8520724BF30C830C144BF59
:1004300004680C607047000000230024002500269B
:10044000103A28BF78C1FBD8520728BF30C148BF37
:100450000B6070471FB501F037FD0348034900F0FA
:10046000E3FB00F061F91FBDD8010031D805003170
:1004700010B500F0C2F910BDDFF80CD0FFF7EAFFAD
:1004800001F0FEFA00F07CFBD809003103B4FFF75D
:10049000EFFF03BC00F09AFC10B5044603E001F046
:1004A00005FD401C09D014F8010B05490028F6D1C0
:1004B000BDE810400A2001F0F9BC4FF0FF3010BD3C
:1004C000880000310000000030B44FF0013C50F8CB
:1004D000042B51F8043BCCFA52F4D51A20D1FCB9C4
:1004E00050F8042B51F8043BCCFA52F4D51A17D12A
:1004F000B4B950F8042B51F8043BCCFA52F4D51A95
:100500000ED16CB950F8042B51F8043BCCFA52F4DC
:10051000D51A05D1002CDAD030BC4FF0000070475E
:1005200029BAB1FA81F111F01801D1F1200084400B
:10053000F2D1CA40CB4012F0FF0213F0FF0330BCEF
:10054000D01A70472DE9F05F054617460C46C8687B
:1005500020F4201040F48000C860800602D50846D0
:1005600000F04FFAE06841F282014FF0FF3A01409B
:10057000022903D0204600F0EDF9B9E000F4204153
:10058000B1F5004F0FD1C00306D56168E06A88421B
:1005900000D80846606006E02069E062606060693B
:1005A00001F0AEF9A061A0680022EEB200280DDAD9
:1005B000E1688B050AD4C043A06041F4903022600A
:1005C000E0606068411C61600670AAE0E0689146E6
:1005D000226040F40050E060206978BB606901F05F
:1005E00093F904F124054FF00108A8B1A08910F493
:1005F000407F08D0E06900F033F9206118B1E0686D
:1006000040F4006017E0C4F81C802561E06820F425
:10061000407040F480600EE0E06900F021F90028AD
:100620002061F0D0E06840F4006010F4407FE060AA
:1006300002D140F48070E06020696060E068256964
:100640006FF0010BC1051ED56168E06A884200D8D1
:100650000846411B04D02246284600F085F9E8BB35
:100660001FB1E562C4E9015959E0681CE0626060AD
:10067000E069401EA060E06840F48030E0603046F1
:100680002E70BDE8F09F17B100F480320AE0606878
:10069000411C61600670E0680A2E40F48030E06022
:1006A00006D00022E16A6068814203D90B4602E06D
:1006B0000122F7E70346B4F80CC05B1B5FEA4C5C11
:1006C00004D4D4F81CC09C4500DD02B3814200D89C
:1006D0000146002BA1EB0008E56200E008E0C4E958
:1006E000015907DD22461946284600F03DF908B1B8
:1006F0005046C6E7B8F1000F09D0A169E562656010
:10070000A1EB0800A061E06840F01000E06047B194
:100710006168A069E562491B08446560A0615846AC
:10072000AFE73046ADE7000010B54248542100F075
:1007300037FA4148542100F033FA4048542100F080
:100740002FFA3F493B483C4A3F4B08603D490A600D
:100750003A491960531C0365481C1065012008655F
:100760003B48344A39A1784400F06CF920B9384844
:1007700078440A3800F00DFA37482F4A35A17844FA
:1007800000F060F920B9344878440A3800F001FAE2
:1007900032482A4A2FA1784400F054F920B92F4852
:1007A00078440A3800F0F5F940232248DC000021A3
:1007B000224600F0ABF820B125487844543800F0C8
:1007C000E8F91D4822464023002100F09FF820B19F
:1007D00021487844543800F0DCF9184822461023A8
:1007E000002100F093F8002806D01C487844BDE8AA
:1007F0001040563800F0CDB910BD104870B5006DEE
:1008000020F001040B4800F095F90B4800F092F934
:100810000A4800F08FF909E0206D20F0010520461C
:1008200000F088F9204600F04AF82C46002CF3D15D
:1008300070BD00003400003188000031DC00003160
:100840000000003104000031080000317200000097
:10085000E217000077000000D1170000AA1700007F
:1008600070B5064600F0C4F9056806F10B0020F0EB
:100870000704B4429CBF002070BD2B466A68BAB121
:100880001068A04210D304F1080188423CBF5068B0
:10089000586007D35168101941601168091B016045
:1008A00058601460101D70BD13465268002AE7D1CD
:1008B0002146284600F0A4F90028DED170BD70B5AD
:1008C0000446051F00F094F90068002C14BF44682A
:1008D00070BD002C18BFAC423CBF20466468F8D302
:1008E00001680A18AA4218BF456003D12A68054664
:1008F0001144016028684119A1421CBF6C6070BDA1
:100900006168696021680844286070BD70B5C4687A
:10091000A50713D0650211D4B2F5807F09D0B2F5D6
:10092000007F06D0B2F5806F08D1012300F12401C9
:1009300006E05D1E6FF07F46B54201D3012070BD19
:100940000161C361416024F470611143C160002002
:1009500070BD0000C16821F4001141F08001C16048
:1009600000218160016070472DE9F04781461446FF
:100970000E464FF0FF383248D5685769054209D016
:100980003846A16900F0F8FF002811DB2C48C0436D
:100990000540E5602B4632464946384600F0F0FFF8
:1009A000A16920F00042B21A11440028A16103D0CD
:1009B0002046FFF7CFFF4046BDE8F08770B50446FC
:1009C0000569C06A6168884200D80846E16821F478
:1009D0002011E160C90312D5A84208D02246411B6C
:1009E0002846FFF7C1FF10B14FF0FF3070BD002067
:1009F000E562C4E90150E06820F48030E060002046
:100A000070BD10B50446C06820F02000E060A16A07
:100A1000A06988420DD02046FFF7D0FFE06820F49F
:100A2000405040F01000E060A06AA0612069E062E0
:100A3000606044F24001E0688843E06010BD00005F
:100A4000100002002DE9F0410C461646070047D081
:100A5000104600F06FF82078611C61280AD07228D7
:100A600002D077283CD102E00125002405E00225D0
:100A7000042402E0082448F2020511F8010B2B2897
:100A800006D0622809D011F8010C74280AD00BE0B6
:100A900045F0030544F00204EFE745F0040544F097
:100AA0000104EAE744F010043846214600F034FF20
:100AB000411C15D00021316171604FF40071F56067
:100AC000F1617061200704D530460222002100F058
:100AD000E1F8306D40F0010030653046BDE8F0814E
:100AE0000020FBE72DE9F0410D460646104C206D35
:100AF000C10704D0410804D020F00104F7E72246E2
:100B00000EE05420FFF7ACFE07000ED0206D47F03A
:100B10000101084354212065384600F041F83A4667
:100B200029463046BDE8F0418CE70020D6E70000BA
:100B3000340000312DE9F04704464FF000094FF032
:100B4000FF37C568D4E90486A80707D02046FFF719
:100B500035FF304600F0CCFE002802DA3846BDE80A
:100B6000F087280502D54046FFF7A9FE4C21204614
:100B700000F016F8206D20F0010020654846EEE7F1
:100B800010B50446AFF300802046BDE81040FFF7E3
:100B90007DBC10B500F000F9BDE8104000F0F6B8DB
:100BA0004FF0000200B5134694469646203922BF06
:100BB000A0E80C50A0E80C50B1F12001BFF4F7AF51
:100BC000090728BFA0E80C5048BF0CC05DF804EB33
:100BD000890028BF40F8042B08BF704748BF20F8A1
:100BE000022B11F0804F18BF00F8012B7047000056
:100BF00000487047380100317047704770477047B0
:100C000038B504460A4600206946AFF30080002844
:100C100008BF38BD02460099204600F0DEF80120EA
:100C200038BD012000F02DB9F8B5AFF300800546BE
:100C300000200C46102000BF0646A819A0420DD97E
:100C4000324669460020AFF30080070008BF00F07D
:100C500018F90098A04218BF0546C419FFF7C8FF4D
:100C600005600746F01D20F007004619284600F0F1
:100C70000AF8B44208BFF8BDA21B31463868BDE887
:100C8000F84000F0AAB800210160C0E901107047E7
:100C9000102070472DE9F041044616460D4647697D
:100CA000007B80072ED0384600F02EFE50BB3EB3AE
:100CB000012E02D0022E25D104E0204600F0A7F834
:100CC00005441DE0384600F01BFEE168002841F0B5
:100CD0001001E16005DA2046FFF73CFE0120BDE887
:100CE000F081C9030BD56268E16A914200D81146D0
:100CF000A26911442269891A814200DD084605442F
:100D0000002D01DA0220EAE7E16A6068E2688142C8
:100D100006D29103E06203D522F4003141F01002C3
:100D2000A6690027AE4213DCE16A814201D90B4675
:100D300000E0034603EB060C2369ACEB030CAC4567
:100D400006DD814201D98C4600E084469C4505D1F0
:100D5000A760276042F02000A5620DE0AD1BE669A8
:100D6000AE1B8142A66000D90846C01A281A20602E
:100D70005819606022F0200003490840E06000201C
:100D800084F84870ABE70000BFCFD7FF002801D040
:100D900000F01CB87047000010B5014602A000F03A
:100DA00057F8012010BD00005349475254524544A2
:100DB0003A2052656469726563743A2063616E27F4
:100DC00074206F70656E3A20000000000149182001
:100DD000ABBEFEE7260002007047034640688C4623
:100DE000002818BF88423CBF03464068F8D3186803
:100DF0001844884207D00CF1030020F00700001DC2
:100E0000411A521A0146081D0A60FFF758BD10B575
:100E10000146C268900703D0900607D5886A0AE0A9
:100E200000F03EF801210160881E10BD8B69486802
:100E300018440B69C01A91F848301BB191F8491059
:100E4000401A10BD1103FCD50028FADD401E10BD6C
:100E500070B505460C460A2000E06D1C00F018F83D
:100E600035B128780028F8D102E0641C00F010F8B1
:100E700014B120780028F8D1BDE870400A2000F0B5
:100E800007B810B500F010F8BDE81040FFF77EBFBE
:100E900008B569468DF800000320ABBE08BD000010
:100EA000004870473001003110B5012805D00021FD
:100EB00003A0FFF7CDFF012010BD09A1F8E7000056
:100EC00053494752544D454D3A204F7574206F6633
:100ED0002068656170206D656D6F7279000000009B
:100EE0003A2048656170206D656D6F727920636F7F
:100EF0007272757074656400012070470000000014
:100F000040F20420C0F200307047000000000000F2
:100F1000B0B540F2A011C3F20011097801292DD11A
:100F2000022831D001282CD040BB40F22C04C3F25F
:100F30000014204600F014FF204600F02DFF20464C
:100F400000F052FF204600F08BFF4EF20410022109
:100F5000CEF20000C0F880100421BFF34F8FBFF322
:100F60006F8FC0F8801040F29C11BFF34F8FBFF31A
:100F70006F8FC3F2001100200870B0BD4FF0FF303A
:100F8000B0BD6FF00300B0BD40F29C15C3F2001578
:100F9000287808B10020B0BD40F2140040F22C04C3
:100FA000C3F20010C3F200140168204600F0B8FE3E
:100FB0004EF204100221CEF200000422C0F880118B
:100FC000C0F8802101600260204600F0D5FE204676
:100FD00000F0EEFE012028700020B0BD00000000EF
:100FE000FEE7000000000000054600F0FDFC04469E
:100FF00000F076FD0CA0FFF74FFA12A0FFF74CFAB5
:1010000019A0FFF749FA00F007FD40F2CC1029467D
:10101000C3F2001000F030FE022C02D3204600F094
:101020000FFD00F0E5FC00BF0D0A3D20426C696E2B
:101030006B792069732072756E6E696E67203D0D45
:10104000000000004C45442074696D657220696E93
:1010500074657276616C2069732073657420746F97
:101060002031730D00000000496E206D61696E2013
:1010700066756E6374696F6E2074657374206F6E2D
:10108000206D38350D000000FEE700000000000074
:10109000FEE7000000000000FEE700000000000086
:1010A000FEE7000000000000FEE700000000000076
:1010B000FEE7000000000000FEE700000000000066
:1010C00010B540F2A0120446C3F200124FF0FF30F8
:1010D0001278012A40F0718040F29C12C3F2001293
:1010E0001278002A08BF10BD4FF0FF3050FA84F28A
:1010F0006FF00300182A00F26080DFE802F00D5E56
:101100005E5E5E5E5E5E5E5E5E5E5E5E5E5E5E5EFF
:101110005E5E24195E2E3D0040F22C00C3F20010EA
:1011200000F08AFE00281CBF6FF0070010BD33E0FE
:10113000012946D0002941D140F22C00C3F2001011
:1011400000F052FE28E0012947D0B9BB40F22C0044
:10115000C3F2001000F084FE1EE040F2A410002153
:10116000C3F2001040F2A812C3F20012016040F274
:10117000AC10C3F200100DE040F2B0100021C3F239
:10118000001040F29412C3F20012016040F2981075
:10119000C3F200100160116014F4E06F1CBF6FF027
:1011A000030010BD14F4405F1CBF6FF0090010BDB8
:1011B00014F4404018BF6FF00A0010BD6FF0040037
:1011C00010BD40F22C00C3F2001000F019FE002800
:1011D0001CBF4FF0FF3010BDDEE740F22C00C3F221
:1011E000001000F049FE00281CBF4FF0FF3010BD7A
:1011F000D2E700000000000000207047000000005F
:1012000040F29810C3F20010006870470000000020
:1012100040F2A41040F2B011C3F20010C3F200116A
:101220000068096800285FEA0F90002918BF0230A3
:10123000704700000000000040F2AC10C3F2001044
:10124000006870470000000040F290110122C3F2D4
:101250000011086040F2A011C3F2001100200A70D2
:101260007047000000000000FFF752BE00000000C1
:101270002DE9F04182B040F2A0124FF0FF34C3F2EA
:1012800000121278012A36D1064640F29C10C3F2B1
:101290000010007878B36FF0040466B3884651B349
:1012A00040F22C000024C3F200108DF8074000F03B
:1012B000B7FD01280FD140F22C070DF10705C3F24D
:1012C000001700BF3846294600F082FD384600F07E
:1012D000A7FD0128F6D040F2B01040F29811C3F2F9
:1012E0000010C3F20011066040F29410C3F2001027
:1012F0000C60C0F80080204602B0BDE8F08100001C
:1013000080B540F2A012C3F200121278012A4FF009
:10131000FF320BD140F29C13C3F200131B782BB1A8
:101320006FF00402002818BF002901D1104680BDCB
:1013300040F2A412C3F20012106040F2A812C3F2ED
:101340000012116040F2AC11C3F2001100220A60D9
:10135000017840F22C00C3F2001000F09DFD00283F
:101360005FEA0FA2104680BD6FF0030070470000D7
:1013700040F29C1040F2A011C3F20010C3F2001121
:101380004FF0FF320078097800284FF0FF3018BF87
:101390006FF00300002950EA12807047000000003F
:1013A000B0B540F2A015C3F200152878012825D168
:1013B00040F22C04C3F20014204600F0D1FC204679
:1013C00000F0EAFC204600F00FFD204600F048FD4A
:1013D0004EF284100221CEF2000001600421BFF31E
:1013E0004F8FBFF36F8F016040F29C10BFF34F8FA0
:1013F000BFF36F8FC3F200100021017040F2901113
:101400000020C3F2001100222A700A60B0BD000063
:10141000FEE7000000000000FEE700000000000002
:10142000FEE7000000000000FEE7000000000000F2
:10143000FEE7000000000000FEE7000000000000E2
:10144000FEE7000000000000FEE7000000000000D2
:10145000FEE7000000000000FEE7000000000000C2
:10146000FEE7000000000000FEE7000000000000B2
:10147000FEE7000000000000FEE7000000000000A2
:10148000FEE7000000000000FEE700000000000092
:10149000FEE7000000000000FEE700000000000082
:1014A000FEE7000000000000FEE700000000000072
:1014B000FEE7000000000000FEE700000000000062
:1014C000FEE7000000000000FEE700000000000052
:1014D000FEE7000000000000FEE700000000000042
:1014E000FEE7000000000000FEE700000000000032
:1014F000FEE7000000000000FEE700000000000022
:10150000FEE7000000000000FEE700000000000011
:10151000FEE7000000000000FEE700000000000001
:10152000FEE7000000000000FEE7000000000000F1
:10153000FEE7000000000000FEE7000000000000E1
:10154000FEE7000000000000FEE7000000000000D1
:10155000FEE7000000000000FEE7000000000000C1
:10156000FEE7000000000000FEE7000000000000B1
:10157000FEE7000000000000FEE7000000000000A1
:10158000FEE7000000000000FEE700000000000091
:10159000FEE7000000000000FEE700000000000081
:1015A000FEE7000000000000FEE700000000000071
:1015B000FEE7000000000000FEE700000000000061
:1015C000FEE7000000000000FEE700000000000051
:1015D000FEE7000000000000FEE700000000000041
:1015E000FEE7000000000000FEE700000000000031
:1015F000FEE7000000000000FEE700000000000021
:10160000FEE7000000000000FEE700000000000010
:10161000FEE7000000000000FEE700000000000000
:10162000FEE7000000000000FEE7000000000000F0
:1016300040F6D810C3F2001080F3098840F2E05061
:10164000C3F2001080F30A8880F30B8800F020F8C2
:10165000FEF7C6FE00000000FEE7000000000000EC
:10166000FEE7000000000000FEE7000000000000B0
:10167000FEE7000000000000FEE7000000000000A0
:10168000FEE7000000000000FEE700000000000090
:101690004EF6145140F20000CEF20001C1F20010EB
:1016A00040F2333241F80C0C4EF20030CEF2010021
:1016B000036823EA020202604A6F42F470024A673A
:1016C000026842F010020260086840F2140240F41E
:1016D000002008600868C3F2001240F4802008600F
:1016E000BFF34F8F40F2280047F64001BFF36F8FE2
:1016F000C3F20010C0F27D1111600160704700005C
:10170000FEE7000000000000FEE70000000000000F
:10171000FEE7000000000000FEE7000000000000FF
:10172000FEE7000000000000FEE7000000000000EF
:10173000FEE7000000000000FEE7000000000000DF
:10174000FEE7000000000000FEE7000000000000CF
:10175000FEE7000000000000FEE7000000000000BF
:10176000FEE7000000000000B0B582B040F22C009F
:101770000021C3F2001000F0BBFA40F2B014C3F233
:101780000014206810B340F29815C3F200152968C0
:10179000014440F22C00C3F2001000F019FB40F2AB
:1017A00094102968C3F20010013129600068814259
:1017B00014D140F29010C3F20010016800202060A4
:1017C00061B1022002B0BDE8B040084740F22C00F1
:1017D0000DF10701C3F2001000F0FAFA02B0B0BD3B
:1017E000FEE7000000000000FEE70000000000002F
:1017F000FEE7000000000000FEE70000000000001F
:10180000FEE700000000000080B540F22C0001213E
:10181000C3F2001000F06CFA40F2A41EC3F2001EE6
:10182000DEF80010E9B140F2AC1340F2A81CC3F29C
:101830000013C3F2001C1A68DCF8000001321A60C1
:1018400082420FD140F29010C3F2001001680020D4
:101850000029CEF8000008BF80BD0120BDE880400F
:10186000084780BD895C40F22C00C3F20010BDE83F
:10187000804000F011BB0000FEE700000000000007
:10188000FEE7000000000000FEE70000000000008E
:10189000FEE7000000000000FEE70000000000007E
:1018A000FEE7000000000000FEE70000000000006E
:1018B000FEE7000000000000FEE70000000000005E
:1018C000FEE7000000000000FEE70000000000004E
:1018D000FEE7000000000000FEE70000000000003E
:1018E000FEE7000000000000FEE70000000000002E
:1018F00048F20401401A10F1030F5FEA2FA070476D
:10190000002070470000000048F20101401A03283F
:101910005FEA2F907047000010B510B304460078BE
:101920003A281ED141F64C712046C1F20011FEF753
:10193000CBFDC8B141F653712046C1F20011FEF74C
:10194000C3FDA0B141F644712046C1F20011FEF77B
:10195000BBFD01464FF0FF30002908BF48F20300ED
:1019600010BD4FF0FF3010BD48F2010010BD48F22D
:10197000020010BD000000004FF0FF307047000073
:10198000B0B548F2030398420CD00D4648F202016C
:10199000884209D114462AB115F8010B00F0C0F8AD
:1019A000013CF9D10020B0BD4FF0FF30B0BD0000C8
:1019B000092A88BF704700680129006804D051B91E
:1019C000012191401BB909E040F2FF3133B10268B7
:1019D0001143016070470021002BF8D1026822EA10
:1019E00001010160704700000A20704700000000FC
:1019F00040F2CC150124C3F2001500BF284600F0C8
:101A000023F908B92FF007C084F00104204600F044
:101A10003BF8F3E70000000010B540F21000012190
:101A2000C3F20010002200230024FFF7C1FF40F2A0
:101A3000C810C3F20010046010BD000000000000D8
:101A400040F2CC15461E00270124C3F2001505E024
:101A500034FA06F00FD06408012700BF284600F0D2
:101A6000F3F808B92FF007C0204600F00DF8002F5A
:101A7000EED0022CEFD264000027EFE70000000058
:101A80004FF47A70FFF7B0BA0021B1EB902F01D07C
:101A900001207047F0B581B040F2C81640F2100541
:101AA000C3F2001604460027C3F20015306802E0B6
:101AB00001370A2F0FD080EA0401F940C907F7D097
:101AC00024FA07F0FAB200F0010300212846FFF7DC
:101AD0006FFF3068ECE73460002001B0F0BD00001B
:101AE00010B541F6E8640020C1F20014A1688847EF
:101AF00048B921690220884728B9A46A01204FF417
:101B0000E131A04710B14FF0FF3010BD1520012189
:101B1000A04700285FEA0FA010BD000000000000F1
:101B2000B0B582B041F6E8650446C1F200158DF803
:101B300007000DF1070001216A69904710B14FF0CD
:101B4000FF3404E02D6A00BFA8470128FCD12046DD
:101B500002B0B0BD0000000010B541680A78002A4C
:101B60001CBF002010BD02681368186820F0010037
:101B70001860D869C00711D100209860D8601A6831
:101B800022F008021A601A6822F004021A601A6829
:101B900042F001021A6001220A7010BDD2E901CEA2
:101BA000D869000302D41868C00725D1BCF1FF0F23
:101BB0004FF00200F1D80024B4EB1E6FEDD14EEAD5
:101BC0000C60C3F8D0001368D2E903CED8690003D3
:101BD00002D41868C0070FD1BCF1FF0F4FF002000C
:101BE000DBD80024B4EB1E6F18BF10BD4EEA0C60AA
:101BF000C3F8D4001368BFE7012010BD0000000047
:101C000041680A78002A18BF70470068D0E90020B0
:101C1000D36A43F00203D362D36C23F00103D3648D
:101C20001061D06A40F00100D06201200870704756
:101C300000680068C06AC0F38000704700000000C0
:101C4000006800688162704710B580B1017971B198
:101C500004682046FFF7ECFF48B140F2C410C3F21D
:101C6000001001682046FFF7EBFF012010BD0020A7
:101C700010BD0000000000002DE9F04190B140F2DD
:101C8000280744F6D356C3F200170446C1F2620691
:101C90000D463868A0FB06018809A0FB050109B9BB
:101CA000207910B10020BDE8F08140F21800C3F2A5
:101CB0000010FFF751FF40F22008C3F20018404621
:101CC000FFF79EFF3868A0FB0601880900FB05F1BD
:101CD00040F2C410C3F2001001604046FFF7B0FFAD
:101CE0000120C4F800802071BDE8F08100000000F0
:101CF00042681278D20709D0022988BF704700686D
:101D000049B203A2006852F82110C160704700BFB9
:101D100002000000010000000300000000000000BD
:101D2000002902464FF0010008BF704710B5D2E904
:101D300000ECDEE90034CCF80410CCF80840B1FB2C
:101D4000F4F11961996821F0030199600321D960C8
:101D5000516808600020BDE8104070470000000096
:101D600041680978C90708BF704700680068816842
:101D700021F008018160704741680978C90701D1E5
:101D80000320704700680068816841F008018160A5
:101D9000002070470000000041680978C90708BFAB
:101DA000704700680068816821F004018160704715
:101DB00041680978C90701D10320704700680068AD
:101DC000816841F00401816000207047000000003C
:101DD000006800684268920701D4042070470068D8
:101DE000087000207047000041680978C90708BFE3
:101DF000704700680068816821F0020181607047C7
:101E000041680978C90701D103207047006800685C
:101E1000816841F0020181600020704700000000ED
:101E200041680978C90701D100207047006800683F
:101E3000406800F00200704751B142681378DB0738
:101E400001D1032070475368B3FBF1F3102B01D28B
:101E500002207047006891600068036100207047AD
:101E600041680978C90708BF704700680068816841
:101E700021F001018160704741680978C90701D1EB
:101E80000320704700680068816841F001018160AB
:101E90000020704700000000006800684268D20718
:101EA00002D1016000207047042070478A68002A30
:101EB00002DC0022FEF746BB521E8A604A68C0B2AE
:101EC000531C4B6010707047F1EE100A4FF6FF7113
:101ED000C0F2C03120EA010040F0407040F48020A0
:101EE000E1EE100A70470000010F0011F90E001119
:101EF00049120011A1130011691200110113001100
:101F00007112001171130011391200110112001128
:101F1000C11000111112001169130011F911001103
:101F20000000105801000000000000000100000047
:101F300000000000000000580048E801003030595F
:101F400000C201003A535444455252003A5354449B
:101F5000494E003A5354444F555400007C1F001121
:101F600000000031340000001C040011B01F0011FB
:101F700034000031A001000038040011000000000E
:101F80000000000000000000002030590C0000316B
:101F900040787D01201F0011B4010031341F001171
:101FA000B501003140787D013C1F0011B8010031BE
:101FB0000000000000000000000000000000000021
:04000005110003E102
:00000001FF
