:020000041100E9
:1000000018920031F1080011A9080011D107001160
:10001000F107001179050011790B00116109001138
:10002000000000000000000000000000E9020011D4
:10003000F905001100000000890300119903001167
:10004000B9080011B108001141090011F9090011A6
:10005000010A0011090A0011000000000000000060
:1000600000000000E1070011E9080011E907001194
:100070007105001100000000810500110000000062
:100080000906001100000000000000000000000050
:100090000000000000000000000000000000000060
:1000A000000000000000000000000000110A001124
:1000B00089050011910500110000000000000000FA
:1000C000F1090011110B0011410B0011190B001166
:1000D000490B0011210B0011510B0011290B0011CC
:1000E000590B0011310B0011610B0011D90A0011DD
:1000F000E10A0011E90A0011F10A0011F90A0011E0
:10010000090B001101060011D9070011190A00118D
:10011000710B001149090011510900115909001111
:1001200000000000A1050011A905001199050011AA
:10013000B9050011C1050011B1050011D10500116B
:10014000D9050011C9050011E9050011F1050011DB
:10015000E10500119106001119070011A107001116
:10016000C9070011110600114906001151060011BE
:10017000590600116106001169060011710600118F
:100180007906001181060011890600111906001177
:10019000210600112906001131060011390600114F
:1001A0004106001199060011D1060011D90600116F
:1001B000E1060011E9060011F1060011F90600112F
:1001C000010700110907001111070011A106001114
:1001D000A9060011B1060011B9060011C1060011EF
:1001E000C90600112107001159070011610700110C
:1001F00069070011710700117907001181070011CB
:1002000089070011910700119907001129070011B2
:10021000310700113907001141070011490700118A
:1002200051070011A9070011B1070011B90700110A
:10023000C1070011390B0011690B0011010B0011EE
:1002400000F002F800F03CF80AA090E8000C8244AC
:100250008344AAF10107DA4501D100F031F8AFF289
:10026000090EBAE80F0013F0010F18BFFB1A43F094
:1002700001031847B0220000D0220000103A24BF2A
:1002800078C878C1FAD8520724BF30C830C144BFFB
:1002900004680C607047000000230024002500263D
:1002A000103A28BF78C1FBD8520728BF30C148BFD9
:1002B0000B6070471FB500F04FF91FBD10B510BDA2
:1002C000DFF814D003B400F0A3FC03BCFFF7F2FF87
:1002D00000F0A6FD00F02EF91892003103B4FFF7EC
:1002E000EDFF03BC00F030F91EF0040F0CBFEFF37C
:1002F0000880EFF30980816911F8021C002935D1CB
:1003000001B590E80F10E047BDE80050CCF80000C0
:10031000254B93E80600914208BF70471A6041B927
:100320001EF0100F10D1214B186820F0010018604A
:100330000AE02CE9F00F1EF0100F08BF2CED108A18
:10034000C1F838C081F822E0906B116B81F30B8803
:1003500092F8221061F0FF0E1EF0100F08BFB0ECF3
:10036000108AB0E8F00F80F309887047104A1368CC
:100370009942FAD801B552F821C00FC8E047BDE84C
:100380000050CCF80000704701B501F01FFABDE83D
:100390000140EFF3098CBBE701B501F0E3FBBDE8D9
:1003A0000140EFF3098CB3E71C00003134EF00E0AB
:1003B000B4240011032A40F2308010F0030C00F046
:1003C000158011F8013BBCF1020F624498BF11F88F
:1003D00001CB00F8013B38BF11F8013BA2F1040248
:1003E00098BF00F801CB38BF00F8013B11F00303C0
:1003F00000F02580083AC0F0088051F8043B083A24
:1004000051F804CBA0E80810F5E7121D5CBF51F8C5
:10041000043B40F8043BAFF30080D20724BF11F83F
:10042000013B11F801CB48BF11F8012B24BF00F8A4
:10043000013B00F801CB48BF00F8012B704710B515
:10044000203AC0F00B80B1E81850A0E81850B1E88D
:100450001850A0E81850203ABFF4F5AF5FEA027CCC
:1004600024BFB1E81850A0E8185044BF18C918C0FC
:10047000BDE810405FEA827C24BF51F8043B40F89D
:10048000043B08BF7047D20728BF31F8023B48BF82
:1004900011F8012B28BF20F8023B48BF00F8012BC0
:1004A00070474FF000020429C0F0128010F0030CD6
:1004B00000F01B80CCF1040CBCF1020F18BF00F857
:1004C000012BA8BF20F8022BA1EB0C0100F00DB806
:1004D0005FEAC17C24BF00F8012B00F8012B48BF64
:1004E00000F8012B70474FF0000200B51346944608
:1004F0009646203922BFA0E80C50A0E80C50B1F17C
:100500002001BFF4F7AF090728BFA0E80C5048BF8F
:100510000CC05DF804EB890028BF40F8042B08BF2D
:10052000704748BF20F8022B11F0804F18BF00F829
:10053000012B704710B50446AFF300802046BDE89C
:100540001040FFF7CBBE000001491820ABBEFEE70C
:10055000260002007047000080B501F03EFFF1EE7A
:10056000100A4EF63C71CEF20001086080BD00001A
:10057000FFE7FEE700000000FFE7FEE700000000E5
:10058000FFE7FEE700000000FFE7FEE700000000D5
:10059000FFE7FEE700000000FFE7FEE700000000C5
:1005A000FFE7FEE700000000FFE7FEE700000000B5
:1005B000FFE7FEE700000000FFE7FEE700000000A5
:1005C000FFE7FEE700000000FFE7FEE70000000095
:1005D000FFE7FEE700000000FFE7FEE70000000085
:1005E000FFE7FEE700000000FFE7FEE70000000075
:1005F000FFE7FEE700000000FFE7FEE70000000065
:10060000FFE7FEE700000000FFE7FEE70000000054
:10061000FFE7FEE700000000FFE7FEE70000000044
:10062000FFE7FEE700000000FFE7FEE70000000034
:10063000FFE7FEE700000000FFE7FEE70000000024
:10064000FFE7FEE700000000FFE7FEE70000000014
:10065000FFE7FEE700000000FFE7FEE70000000004
:10066000FFE7FEE700000000FFE7FEE700000000F4
:10067000FFE7FEE700000000FFE7FEE700000000E4
:10068000FFE7FEE700000000FFE7FEE700000000D4
:10069000FFE7FEE700000000FFE7FEE700000000C4
:1006A000FFE7FEE700000000FFE7FEE700000000B4
:1006B000FFE7FEE700000000FFE7FEE700000000A4
:1006C000FFE7FEE700000000FFE7FEE70000000094
:1006D000FFE7FEE700000000FFE7FEE70000000084
:1006E000FFE7FEE700000000FFE7FEE70000000074
:1006F000FFE7FEE700000000FFE7FEE70000000064
:10070000FFE7FEE700000000FFE7FEE70000000053
:10071000FFE7FEE700000000FFE7FEE70000000043
:10072000FFE7FEE700000000FFE7FEE70000000033
:10073000FFE7FEE700000000FFE7FEE70000000023
:10074000FFE7FEE700000000FFE7FEE70000000013
:10075000FFE7FEE700000000FFE7FEE70000000003
:10076000FFE7FEE700000000FFE7FEE700000000F3
:10077000FFE7FEE700000000FFE7FEE700000000E3
:10078000FFE7FEE700000000FFE7FEE700000000D3
:10079000FFE7FEE700000000FFE7FEE700000000C3
:1007A000FFE7FEE700000000FFE7FEE700000000B3
:1007B000FFE7FEE700000000FFE7FEE700000000A3
:1007C000FFE7FEE700000000FFE7FEE70000000093
:1007D000FFE7FEE700000000FFE7FEE70000000083
:1007E000FFE7FEE700000000FFE7FEE70000000073
:1007F000FFE7FEE710B500F1280151E8002F12B91C
:10080000BFF32F8F04E0531E41E8003404B1F4E736
:1008100072B12C300121006850B1821CD2E84F3FE8
:10082000C2E8441F04B1F9E71A0602D00830F2E723
:10083000002010BD70B5024652F8305F4DB1CC7843
:1008400000235DB12E46ED78A5420DD27568334682
:10085000F7E70023C162C1E901330DE00024C1E9DB
:10086000014300F12C0403E0C1E9016306F108042F
:100870002160002B18BF1A1D1160283050E8001F9E
:100880004A1C40E8002303B1F8E770BDD1E9012319
:1008900012B193608B6800E0C362191D002B08BF82
:1008A00000F130010A607047FFE7FEE7000000003A
:1008B000FFE7FEE700000000FFE7FEE701480068F1
:1008C000704700BF10E000E021682046D4E9022311
:1008D00000F0D4BE002100220646002701F02AB90C
:1008E000204601F0B5B80000FFE7FEE70000000079
:1008F00084B072B649F21820C3F20010009000983C
:1009000080F3098848F62020C3F200100190019975
:1009100081F30A880290029880F30B8849F218202C
:10092000C3F20010039003994EF6A550CFF6F56080
:100930004860086000F018F8FFF782FC0000000033
:10094000FFE7FEE700000000FFE7FEE70000000011
:10095000FFE7FEE700000000FFE7FEE70000000001
:10096000FFE7FEE70000000080B540F20000C1F2A2
:1009700000104EF60851CEF2000108604EF2003130
:10098000CEF20101086840F23332904308604EF61F
:100990008852CEF20002106840F4700010600868BF
:1009A00040F0100008604EF61451CEF200010868C5
:1009B00040F400200860086840F480200860BFF31D
:1009C0004F8FBFF36F8F01F083F900F029F840F2E9
:1009D0000401C3F2001147F64000C0F27D10086028
:1009E00040F20001C3F20011086080BD0000000069
:1009F000FFE7FEE700000000FFE7FEE70000000061
:100A0000FFE7FEE700000000FFE7FEE70000000050
:100A1000FFE7FEE700000000FFE7FEE70000000040
:100A20004EF6D851CEF20001002008604EF6DC539D
:100A3000CEF200034FF0817018604EF6E052CEF215
:100A400000024FF6E170C0F21F1010600120086034
:100A50000021C2F20411196040F60141C2F20411F2
:100A600011604EF6D051CEF2000108604EF68C5166
:100A7000CEF20001086840F4406008604EF6347120
:100A8000CEF200010868042262F39C60086070479F
:100A9000B0B5104A0023443215462C683CB1256994
:100AA000A94209D3491B04F10C052346F5E70024AC
:100AB0000161C0E9023406E001612569C0E9023440
:100AC000691AA0602161002B18BF03F10C021060AD
:100AD000B0BD00BF08000031FFE7FEE700000000E6
:100AE000FFE7FEE700000000FFE7FEE70000000070
:100AF000FFE7FEE700000000FFE7FEE70000000060
:100B0000FFE7FEE700000000FFE7FEE7000000004F
:100B1000FFE7FEE700000000FFE7FEE7000000003F
:100B2000FFE7FEE700000000FFE7FEE7000000002F
:100B3000FFE7FEE700000000FFE7FEE7000000001F
:100B4000FFE7FEE700000000FFE7FEE7000000000F
:100B5000FFE7FEE700000000FFE7FEE700000000FF
:100B6000FFE7FEE700000000FFE7FEE700000000EF
:100B7000FFE7FEE700000000FFE7FEE700000000DF
:100B800080B582B0019001F07FF838B1FFE701989D
:100B900000684FF0FF3100F05BFCFFE702B080BD62
:100BA00080B582B001900198006800F063FC02B04B
:100BB00080BD00000000000080B582B001900020E0
:100BC00000F06AFC019908600198006818B1FFE71D
:100BD0000120009006E0002000900199052000F01F
:100BE00096FCFFE7009802B080BD00000000000006
:100BF00080B582B0019001F047F828B1FFE7019875
:100C0000006800F05BFCFFE702B080BD0000000060
:100C100080B500F08FFB80BD80B592B0DDF85CC080
:100C2000DDF858C0DDF854C0DDF850C010900F91C9
:100C30000E920D93109800680068019010980F991B
:100C40000CAA00F0B9F838B1FFE710980E9907AA7E
:100C500000F0B2F820B9FFE703208DF8470098E0D4
:100C60000C980799884204D0FFE705208DF84700CB
:100C70008FE00C980D99086001984069411D012092
:100C800088400B900F9A0B99B2FBF1F000FB1120FA
:100C900048B9FFE70E98421C0B99B2FBF1F000FB3C
:100CA000112020B1FFE704208DF8470071E00F9874
:100CB0000C990A688968801A084403900E980C9968
:100CC0000A688968801A0844029002980B99B0FB60
:100CD000F1F0069006984009059003980B99B0FB37
:100CE000F1F00A900A98400909900A9806998842FA
:100CF00004D9FFE705208DF847004AE005980999D7
:100D0000401A0130159908600998149908600198F3
:100D10000069089005980899884205D8FFE7099866
:100D20000899884204D9FFE7FF208DF8470030E09A
:100D30000A9800F01F01012000FA01F14942169AB9
:100D400011600699013101F01F018840013817999F
:100D500008601798006828B9FFE717994FF0FF302F
:100D60000860FFE70998059988420ED1FFE71698B9
:100D70000068179909684840C04304900498169980
:100D80000860049817990860FFE700208DF8470075
:100D9000FFE79DF9470012B080BD00000000000091
:100DA00082B0019001980068006800900098D0F827
:100DB000E00FC0B202B0704786B004900391029277
:100DC00000200190FFE7019804990968097A884298
:100DD0001ED2FFE7049800684068019950F821008E
:100DE000009003980099096888420CD3FFE70398A4
:100DF00000994968884206D8FFE700980299086080
:100E00000120059007E0FFE7019801300190DAE743
:100E100000200590FFE7059806B07047000000002D
:100E200080B582B000200090019000F0B9FF00F082
:100E300047FF01F0B5FA009802B080BD0000000045
:100E400080B592B010900F910E928DF837301098B7
:100E5000006800680490109840680078C00720B9C6
:100E6000FFE702208DF84700BAE010980F990E9A1C
:100E7000EC4609ABCCF80C300BABCCF8083007AB28
:100E8000CCF804300CABCCF8003006ABFFF7C4FE56
:100E90008DF836000C9807990844013808909DF9A0
:100EA000360078B1FFE79DF93600B0F1FF3F04DC72
:100EB000FFE705208DF8470092E09DF836008DF899
:100EC00047008DE00698007B9DF83710884204D0DB
:100ED000FFE706208DF8470082E0BFF35F8F0C9894
:100EE000049988610798012820D1FFE70498C06918
:100EF00005909DF83700012805D1FFE70B9905986B
:100F00000843059004E00B99059888430590FFE796
:100F10000C980499886105980499C861BFF34F8FB4
:100F2000BFF36F8F00208DF8470059E00498C06927
:100F300005909DF83700012805D1FFE70B9905982A
:100F40000843059004E00B99059888430590FFE756
:100F50000C980499886105980499C8610C9801302F
:100F60000A90FFE70A980899884216D2FFE70A9884
:100F7000049988619DF83700012805D1FFE704999D
:100F80004FF0FF30C86103E004990020C861FFE71B
:100F9000FFE70A9801300A90E4E70898049988610D
:100FA0000498C06905909DF83700012805D1FFE736
:100FB000099905980843059004E009990598884324
:100FC0000590FFE708980499886105980499C8611D
:100FD000BFF34F8FBFF36F8F00208DF84700FFE7FF
:100FE0009DF8470012B080BD84B002900191029834
:100FF000006800680090029840680078C00720B937
:10100000FFE702208DF80F0011E0019820B9FFE7FB
:1010100001208DF80F000AE000984069411D012071
:1010200088400199086000208DF80F00FFE79DF8C7
:101030000F0004B07047000084B002900191029844
:10104000006800680090029840680078C00720B9E6
:10105000FFE702208DF80F000EE0019820B9FFE7AE
:1010600001208DF80F0007E00098006801990860E2
:1010700000208DF80F00FFE79DF80F0004B07047C7
:1010800080B596B014901391129211931498006841
:1010900000680690149840680078C00720B9FFE700
:1010A00002208DF8570003E1119820B9FFE70120D5
:1010B0008DF85700FCE011990220087006984069ED
:1010C000411D012088400F900F9801380E900E9915
:1010D0001398884313900E991298884312900F9892
:1010E000129908440138129014981399129AEC46F8
:1010F00008ABCCF80C300BABCCF8083007ABCCF815
:1011000004300CABCCF8003005ABFFF785FD8DF853
:1011100037000C9807990844013809909DF9370069
:1011200078B1FFE79DF93700B0F1FF3F04DCFFE73E
:1011300005208DF85700BBE09DF837008DF857006B
:10114000B6E00C98069988610798012820D1FFE73E
:101150000698C06904900B9904980840049004987C
:1011600020B9FFE71199002008700DE004980B9951
:10117000484004D0FFE711990220087003E011995C
:1011800001200870FFE7FFE700208DF857008FE08F
:101190000698C0690B9908400490049820B9FFE7AD
:1011A00011990020087010E004980B99484007D06E
:1011B000FFE711990220087000208DF8570077E0B2
:1011C000119901200870FFE7FFE7119800788DF86A
:1011D00043000C9801300A90FFE70A980999884269
:1011E00034D2FFE70A98069988610698C06904908E
:1011F000049820B9FFE71199002008700FE00498C7
:10120000013020B9FFE711990120087006E011991B
:101210000220087000208DF8570049E0FFE7119880
:1012200000789DF84310884207D0FFE7119902200B
:10123000087000208DF857003AE0119800788DF87A
:101240004300FFE70A9801300A90C6E7099806991B
:1012500088610698C069089908400490049820B9EC
:10126000FFE711990020087010E004980B9948409E
:1012700007D0FFE711990220087000208DF8570071
:1012800016E0119901200870FFE7FFE71198007838
:101290009DF84310884207D0FFE71199022008709B
:1012A00000208DF8570003E000208DF85700FFE77D
:1012B0009DF8570016B080BD80B582B000900098B0
:1012C000FFF76EFD009949684860009840684068E3
:1012D00060280AD0FFE7009840684068652804D07D
:1012E000FFE707208DF8070007E00098416801201C
:1012F000087000208DF80700FFE79DF8070002B096
:1013000080BD0000EFF3058048B9EFF3108030B9DD
:10131000EFF3118018B9EFF31480C00702D104482D
:10132000007A7047DFF804C000DF7047B51D001178
:101330000800003180B500F0ECF8EFF3058028B923
:10134000EFF3108010B9EFF3118010B16FF00500CA
:1013500080BDDFF808C000DF80BD00BFC11D0011E7
:10136000F8B50546EFF3058014460E4628B9EFF3AD
:10137000108010B9EFF31180F0B1D5B12878FA28B8
:1013800017D16FF00300EEB1E3B92846FFF732FA48
:10139000C8B16A6A00F10C0107463046FFF70AF847
:1013A0000CB1F87820703846FD6000F053FA002048
:1013B000F8BD6FF00300F8BD2846DFF810C03146D5
:1013C000224600DFF8BD6FF00200F8BDC11E00111B
:1013D0002DE9F0410646EFF3058090460D4628B909
:1013E000EFF3108010B9EFF3118018B3EEB130783D
:1013F000FA281AD16FF00307CDB1C3B906F10C007A
:1014000000F0FAF8F0B1726A04460C302946FEF793
:10141000D1FFF920002720702046C4E9015684F846
:101420000380A77000F016FA01E06FF0030738465A
:10143000BDE8F0813046DFF814C02946424600DF9F
:10144000BDE8F0816FF00207F1E700BFA1200011B5
:10145000EFF305822AB9EFF3108212B9EFF311828C
:1014600012B16FF005007047DFF804C000DF70476D
:101470004D210011EFF3058129B9EFF3108111B966
:10148000EFF3118111B16FF005007047DFF804C070
:1014900000DF7047D9210011EFF3058129B9EFF37F
:1014A000108111B9EFF3118109B100207047DFF805
:1014B00008C000DF704700BF81220011EFF30581F3
:1014C00029B9EFF3108111B9EFF3118111B16FF068
:1014D00005007047DFF804C000DF7047E922001103
:1014E00083B00290019102980138014600910428CE
:1014F0000AD80099DFE801F003040506070004E0BC
:1015000003E002E001E000E0FFE7FFE7FEE7FFF7AE
:10151000E7BF7047F0B5A8B1002379B3032A2DD8EF
:1015200003460F3153F8085F21F007012C46EE1AED
:101530005D6825F00307F61B8E4205D22568234619
:10154000002DF3D1002319E0D0E900760E44466067
:10155000384450F8047CB7423EBF083846605D68A6
:1015600045B125F003001143C450184418600346E8
:10157000416002E041EA0200586008331846F0BDBD
:10158000B0B560B159B100F10804A1F1080200231F
:10159000944206D0254624682B46002CF8D1002022
:1015A000B0BD51F8045C446825F00305641B446039
:1015B00013B11068186002E0002041F8040C01200B
:1015C000B0BD18B102460843400701D00020704763
:1015D000002018290FD310B58B18A3F108049460CC
:1015E00043F8080C10249368C2E900145C60D060D2
:1015F0000120BDE81040704710B5002817D0014603
:1016000000F1140252E8000F10B9BFF32F8F04E06D
:10161000036842E8003404B1F4E740B1043151E812
:10162000002F531C41E8003404B1F8E710BD00203E
:1016300010BDB0B500281ED0C2688A421BD802690E
:101640008A4218D900F1140213680B60BFF35F8F50
:1016500052E8003F0C689C42F6D142E8001505B103
:10166000F2E7043050E8001F4A1E40E8002303B1AF
:10167000F8E70020B0BD6FF00300B0BDB0B598B181
:1016800091B18AB1044600209BB1C4E9001004F175
:10169000080002FB013563612CC0481E30B1991867
:1016A000196001380B46F9E70020B0BD0020186032
:1016B0000120B0BDF8B50446807848B3E5682146FE
:1016C0002846FFF7E3F805F10C06002020702146BC
:1016D0003046FFF7AEFFA868C8B13046FFF78CFF71
:1016E000A8B10446284600F0B3F9FFF7F3F83046F6
:1016F00000F0F2F9416806466A6A04F10C00FEF750
:1017000059FEF920A7702070B068E07021E0F8BDA4
:10171000A568A868E8B1407883281AD1284600F067
:1017200097F9FFF7D7F8304600F0D6F9064640683B
:101730006A6A04F10C01FEF73DFEB06808B1E17879
:101740000170277005F10C002146BDE8F840FFF755
:1017500070BF28462146BDE8F840FFF76BB800008F
:1017600080B507480821D0E91A2000F00FFCF049A5
:10177000C8640021002808BF4FF0FF31084680BD33
:10178000F4230011B0B5C278920718D5C068C36AB7
:1017900090F82120DC78A4070AD59C688C4208BF09
:1017A0008C682CB194F9204055B2AC42C8BFE2B26B
:1017B0005B69002BEED190F82010914200D1B0BDB2
:1017C00080F82020BDE8B04000F06BB9B0B5D84C2F
:1017D000B4F8540004F15601D1E85F2F12B9BFF3F9
:1017E0002F8F04E0531EC1E8553F05B1F4E7110403
:1017F0002BD004F15A01D1E85F2F531C984200D836
:101800000023C1E8553F05B1F5E790B2E16D51F80D
:101810002000D0B10178F1390829D9D8DFE801F0EA
:1018200006050905050C0F051200D1E7216E884752
:10183000CEE7616E8847CBE7A16E8847C8E7E16EC7
:101840008847C5E7216F8847C2E70020BDE8B04060
:1018500000F0D6B870B50146E54800F15603B0F87F
:101860005420D3E85F4FA24202D8BFF32F8F04E089
:10187000651CC3E8565F06B1F3E7A3B2934214D2E6
:1018800000F15803D3E85F4F651CAA4200D8002539
:10189000C3E8565F06B1F5E7A2B2C36D43F8221064
:1018A000417A39B10121817270BD0220BDE87040DA
:1018B000FFF72DBE02484FF08051016070BD00BFA0
:1018C00004ED00E010B5012190F920304170ED49A0
:1018D0001C310A46896841B191F920409C42F8DCEC
:1018E000C0E902120C31906004E00021C0E902124C
:1018F00002F10801086010BDB0B54A1C0DD0E14AE4
:1019000000232C3215462C68E4B1E569A94221D3A5
:10191000491B04F110052346F5E7DA49002301F1DC
:10192000300214461946236803F11004002BF9D144
:101930004FF0FF33C3610023C0E90431C1B101F1AD
:10194000100215E0C161002BC0E9044318BF03F188
:1019500010020DE0002BC0E90443C16118BF03F180
:10196000100210602CB1E269511AE16104F1140215
:101970001060B0BDC2690169531C0AD021B143692E
:101980004B61CB691A44CA6142693AB9BD4AD16216
:1019900007E009B142694A6142692AB10023116135
:1019A00043610021C1617047B64A1163F9E700BF86
:1019B00070B5B44DEC6A1CB1E0690138E06100D04B
:1019C00070BD042660781338B6EB301F08D120466E
:1019D0000178F12901D1C068FAE72146FFF7D2FE6C
:1019E000204600F054F8204600F06EF8246924B137
:1019F000E0690028E6D000206061EC6270BD00BFA5
:101A000070B5EE4E05467469307A65B1022805D18D
:101A100094F9200095F92010814211DC2846BDE898
:101A2000704000F051B8022810D1756A75B194F970
:101A3000200095F92010814208DD284600F027F8A3
:101A40002046FFF73FFF0220B561687070BD00BF00
:101A50000146806882688A6002B1D1600021C1605D
:101A6000704710B591F920300246806840B190F976
:101A700020409C42F8DAC1E902020C30916004E097
:101A80000020C1E9020202F10800016010BDC16836
:101A900031B182688A60826802B1D1600021C16080
:101AA0007047B0B50446054625B12878F12802D123
:101AB000ED68F9E7B0BD2046FFF7E9FF284621466B
:101AC000BDE8B040FFF7CDBF014601204870F9489E
:101AD0001C30FFF7C6BF00BF90F82210C9064FF0B8
:101AE000200158BF6021806B08447047F14988612C
:101AF00002214170704700BF10B5EE4C227A022AD5
:101B000014D1626A92B1626950701046FFF7F4FE18
:101B1000606A8168616211B104F11C02CA6002212D
:101B2000A06141700021C160012010BD002010BDE6
:101B300008000031B0B5044690F822001546C006F2
:101B40004FF0200058BF6020A26B81502046FFF765
:101B500011FF2046002DBDE8B04008BFFFF7B4BF1D
:101B6000FFF74EBFB0B5FEF7A9FED24DE8680130D1
:101B7000E860FFF71DFF0020FFF742FF286D00B16E
:101B80008047296C71B1A869EA6B904205D0C2699F
:101B9000E86322B9C1610A4601E0C2691AB1511E67
:101BA000C16100D0B0BD297A0229FBD16C6A002C3A
:101BB000F8D090F8200094F820108142F2D120460D
:101BC000FFF765FFE86BFFF77FFF2046FFF78EFF0B
:101BD000286CEC63E061B0BD80B5FFF7C1FD10B1CA
:101BE0004FF0FF3080BDE84802490165002080BD0C
:101BF00008000031191C001182B004466D462046D1
:101C0000294600224FF0FF33FFF7AAFB0028F6D148
:101C1000DDE900108847F2E72DE9F041DA4D6C6C00
:101C200074B36E694FF0010820690138206134B344
:101C3000206920BBE06808B1A1688160686404F194
:101C40001801E86C00220023FFF7C2FB60B1D5E960
:101C50000570214668610320FFF759FC696986EA2F
:101C60000700084308BF0646E078012811BF84F842
:101C7000018061692046FEF70BFF6C6CD7E76E614F
:101C8000BDE8F0810800003180B548F20060C3F281
:101C90000010007868B9FFE7FFF734FB022807DB84
:101CA000FFE748F20061C3F2001101200870FFE76E
:101CB000FFE748F20060C3F20010007880BD00002A
:101CC00040F6184CC2F2041C8CF388887047000060
:101CD00080B598B042F29C43C1F20013186859686D
:101CE0009A68DB68179316921591149014A81390B4
:101CF00013A812904FF0AE400F9012981090012050
:101D00008DF8440042F2AC42C1F2001211685268F0
:101D10000E920D910FA90B910DA90C918DF82B002E
:101D20000BA80590FFF7C8FA014605988DF82A1010
:101D300000210191099109A9FFF77EF90199024655
:101D400005988DF82320079107A9FFF74DF9014663
:101D500005988DF81B104FF0817102914FF6FF72BC
:101D6000C0F21F1203920DF11A030493FFF788F9D2
:101D70000299039A034605988DF819309DF82B3087
:101D8000FFF75EF80299039A049B844605988DF844
:101D900018C0FFF775F98DF8190018B080BD000064
:101DA00041F2221585F3248885F3A08885F3A48861
:101DB00070470000E448007A704700BF0800003117
:101DC0002DE9F843DFF8D08598F8080028B10128FC
:101DD0006CD04FF0FF30BDE8F883374FD7E90B41A7
:101DE000388AA8F85400D7E90202C8F84000204613
:101DF000C8F85C20FFF7E5FB08B1C8F88040D7E9D8
:101E00000541DFF8B890D7E907562046C847D8F80B
:101E10008010002818BF2146C8F8741028463146A3
:101E2000C847D8F88010002818BF2946C8F878108D
:101E3000D7E909412046C847D8F88010002818BFC4
:101E400021467C6BC8F87C101CB1FEF73DFDC8F83C
:101E50008440BC6B1CB1FEF737FDC8F88840FC6BB2
:101E60001CB1FEF731FDC8F88C403C6C1CB1FEF78C
:101E70002BFDC8F890407C6C1CB1FEF725FDC8F81E
:101E80009440BC6C1CB1FEF71FFDC8F89840FC6C78
:101E90001CB1FEF719FDC8F89C403C6D1CB1FEF763
:101EA00013FDC8F8A040012088F808000020BDE814
:101EB000F88300BF08000031F4230011C31500119E
:101EC0002DE9F041002848D004460078FA2844D192
:101ED0000F46002941D020461E461546FEF78AFCD3
:101EE00000283FD0804620464146FEF7CFFC626A7C
:101EF00008F10C013846FEF75DFA15B198F80300B9
:101F0000287004F10C060025414688F80050304640
:101F1000FFF78FFBA06810B33046FFF76DFB00257D
:101F2000E8B10646FEF7DCFC002101220746FFF778
:101F300001FE3846FFF7D0FD41680746626A06F1A8
:101F40000C00FEF737FAF92031463070B868F070AF
:101F50002046B570FEF76EFC01E06FF003052846E1
:101F6000BDE8F08166B183203146FFF7C5FD20B1A1
:101F7000DC4841692046FFF774FD6FF00105EEE78C
:101F80006FF00205EBE700BF080000312DE9F84FC4
:101F900048B10D4639B10446B0FA80F0B5FA85F182
:101FA0000844202803D200263046BDE8F88F05F10A
:101FB0000F0020F0030808FB04F95AB19668D2F824
:101FC00000A0D2E904707EB1B107ECD1D168342908
:101FD000E9D30CE04FF0000A0027EF49D1F8A00048
:101FE00058B1FFF709FB0EE0D1680029DBD157B3E8
:101FF000B907D8D14845D6D327E0D1F8800034219D
:102000000122FFF787FA06464FF0010B67BB5EB36C
:10201000CDF800A04946DFF880A30022DAF87C0062
:10202000FFF778FA074620B138464946FEF739FAF5
:1020300016E0BBF1000F12D0DAF8A00050B1314623
:10204000FFF7F7FA0BE00028ADD1002EC5D04FF016
:10205000000BDBE7DAF880003146FFF791FA002643
:10206000DDF800A00BF1020B002E3FF49DAF002025
:102070002146C6E909504246C6E90B003B46C6E97F
:1020800001A0FA20307006F10C0086F802B0FFF7CC
:10209000F5FAC1480149016786E700BFB51600118E
:1020A0002DE9F04118B304460078FA281FD10F46F5
:1020B000E9B1A0681E469046F0B1407883281BD154
:1020C000FEF70EFC0021012205460026FFF732FD37
:1020D0002846FFF701FD05464068626A3946FEF76B
:1020E00069F9A86828B180F80080002601E06FF047
:1020F00003063046BDE8F08104F10C00FFF77CFADE
:1021000080B1626A05460C303946FEF753F9F92072
:10211000002628702046294685F80380AE70FEF719
:1021200089FBE6E766B193203146FFF7E5FC20B175
:10213000994841692046FFF794FC6FF00106D8E703
:102140006FF00206D5E700BF0800003170B5044605
:10215000914845694DB32CB32078F52822D1207ED3
:1021600030B30E46E178CA0702D0E268AA422BD00B
:1021700066B388070AD5E06895F9201090F9202009
:102180008A42BCBF80F82010FFF78BFC53203146F9
:10219000FFF7B2FC18B120462946FFF762FC6FF04A
:1021A000010070BD6FF0030070BD4FF0FF3070BDD7
:1021B0000020C4E90350E86A606100B104610120B5
:1021C000EC622076002070BDFF2802D16FF0020083
:1021D00070BD0130F5E700BFB0B520B3044600780C
:1021E000F52820D1207EB8B36169E06809B1226981
:1021F0000A6100F12C0223691546002B18BF03F178
:102200001405296090F8211012687AB1D3789B07E1
:1022100007D593682BB193F920304DB2AB42C8BFBC
:10222000D9B21432F0E76FF00300B0BD90F820206F
:102230008A421CBF80F82010FFF733FCA06840B131
:102240002046FFF705FC6FF002010022FFF772FC49
:10225000F4E70020FFF7D4FBA17800202070C90725
:102260000DD04D49D1F8940018B12146FFF7E1F99E
:1022700004E0D1F880002146FFF782F90020B0BDCC
:1022800070B550B18468D0E900657CB1A10710D168
:10229000C16800201C2917D270BD002500263E49C8
:1022A000D1F8940038B1FFF7A7F90AE0C068002818
:1022B000F5D0002070BDD1F880001C210122FFF76D
:1022C00029F9044658B10120A070F520207004F1CE
:1022D000080011216660E570FEF705F900E00024B2
:1022E000204670BD0800003170B504462A48406998
:1022F00070B154B12178F52907D1217E11B1E2687E
:10230000824209D06FF0020404E06FF0030401E0A0
:102310004FF0FF34204670BD01392176090601D007
:102320000024F7E7616909B122690A6100F12C0212
:1023300023691546002B18BF03F11405296090F896
:102340002110126862B1D3789B0707D593682BB12F
:1023500093F920304DB2AB42C8BF19461432F0E7B2
:1023600080F82010A06888B12046FFF771FB00219B
:10237000002205460026FFF7DDFBE86AC4E90356A4
:10238000606100B104610120EC622076002000242D
:10239000FFF736FBBEE700BF080000310000000079
:1023A00080B582B04FF08170006801900420C0F2C7
:1023B00002100068009000982DE9F00F20F0010055
:1023C000A2B02DEC000A9FE8FE9F84473DEC000A76
:1023D00022B0BDE8F00F02B080BDF1EE100A4FF65A
:1023E000FF71C0F2C03120EA010040F04070E1EE20
:1023F000100A704701000000E8030000050000001B
:10240000B0000031100000000000000000000000DB
:1024100000000000000000000000000000000000BC
:10242000F00000310080000000000000000000000B
:10243000000000000000000000000000000000009C
:102440000000000000000000000C0000B824001193
:10245000F4240011F91B0011D91B0011DC24001118
:102460000400000074810031FC8100310000000094
:10247000000000000000000000000000000000005C
:10248000000000000000000000000000000000004C
:1024900000000000F08000312481003100000201C2
:1024A000FFFF1F010000020001000000000000000B
:1024B00065000000000000000000000000000000B7
:1024C00074810031440000000082003100020000ED
:1024D00001000000000000000000000000000000FB
:1024E00000000000F0800031340000002481003141
:1024F000500000000000000000000000B881003122
:1025000044000000008400310002000028000000A8
:1025100000000000000000005254582056352E35AF
:102520002E3400004825001100000031B0000000EA
:102530007C020011F8250011B00000315485000024
:10254000980200110000000040787D0140787D0174
:1025500018250011D4B3FB020000000000000000A9
:10256000000000000000000000000000000000006B
:10257000000000000000000000000000000000005B
:10258000000000000000000000000000000000004B
:10259000000000000000000000000000000000003B
:1025A000000000000000000000000000000000002B
:1025B000000000000000000000000000000000001B
:1025C000000000000000000000000000000000000B
:1025D00000000000000000000000000000000000FB
:1025E00000000000000000000000000000000000EB
:1025F00000000000000000000000000000000000DB
:0400000511000241A3
:00000001FF
