:020000041100E9
:10000000188E0031790900112909001149080011E1
:1000100069080011F1050011390C0011E9090011FE
:10002000000000000000000000000000210300119B
:100030007106001100000000C1030011D10300117E
:100040003909001131090011C9090011990A00117B
:10005000A10A0011A90A0011000000000000000020
:100060000000000059080011710900116108001119
:10007000E905001100000000F90500110000000072
:1000800081060011000000000000000000000000D8
:100090000000000000000000000000000000000060
:1000A000000000000000000000000000B10A001184
:1000B0000106001109060011000000000000000008
:1000C000910A0011D10B0011010C0011D90B001184
:1000D000090C0011E10B0011110C0011E90B0011CA
:1000E000190C0011F10B0011210C0011990B0011DA
:1000F000A10B0011A90B0011B10B0011B90B0011DC
:10010000C90B00117906001151080011B90A00113C
:10011000310C0011D1090011D9090011E1090011B8
:10012000000000001906001121060011110600113F
:100130003106001139060011290600114906001187
:1001400051060011410600116106001169060011F7
:100150005906001109070011910700111908001133
:100160004108001189060011C1060011C9060011DD
:10017000D1060011D9060011E1060011E9060011AF
:10018000F1060011F9060011010700119106001196
:1001900099060011A1060011A9060011B10600116F
:1001A000B90600111107001149070011510700118C
:1001B000590700116107001169070011710700114B
:1001C0007907001181070011890700111907001133
:1001D000210700112907001131070011390700110B
:1001E0004107001199070011D1070011D90700112B
:1001F000E1070011E9070011F1070011F9070011EB
:10020000010800110908001111080011A1070011CF
:10021000A9070011B1070011B9070011C1070011AA
:10022000C907001121080011290800113108001127
:1002300039080011F90B0011290C0011C10B001134
:10024000AFF30F8000F002F800F052F8AFF30F8028
:100250000BA090E8000C82448344AAF10107AFF39D
:100260000F80DA4501D100F043F8AFF20D0EBAE885
:100270000F0013F0010F18BFFB1A43F001031847DA
:1002800094240000B4240000AFF30F80103A24BF80
:1002900078C878C1FAD8520724BF30C830C144BFEB
:1002A00004680C6070470000AFF30F800023002447
:1002B00000250026103A28BF78C1FBD8520728BF76
:1002C00030C148BF0B607047AFF30D802DE93F5040
:1002D00000F072F9BDE83F50AFF32D807047AFF3E7
:1002E0000D802DE93050BDE83050AFF32D807047C0
:1002F000AFF30F80DFF814D003B400F00DFD03BCA2
:10030000FFF7E2FF00F028FE00F042F9188E0031FE
:10031000AFF30F8003B4FFF7E2FF03BC00F040F936
:100320001EF0040F0CBFEFF30880EFF30980816922
:1003300011F8021C002935D101B590E80F10E047F3
:10034000BDE80050CCF80000254B93E80600914230
:1003500008BF70471A6041B91EF0100F10D1214B31
:10036000186820F0010018600AE02CE9F00F1EF078
:10037000100F08BF2CED108AC1F838C081F822E0B8
:10038000906B116B81F30B8892F8221061F0FF0ED5
:100390001EF0100F08BFB0EC108AB0E8F00F80F329
:1003A00009887047104A13689942FAD801B552F883
:1003B00021C00FC8E047BDE80050CCF800007047EE
:1003C00001B501F0DFFABDE80140EFF3098CBBE7AE
:1003D00001B501F0A3FCBDE80140EFF3098CB3E7E0
:1003E0001C00003134EF00E0A4260011AFF30F80B1
:1003F000032A40F2308010F0030C00F0158011F851
:10040000013BBCF1020F624498BF11F801CB00F828
:10041000013B38BF11F8013BA2F1040298BF00F87C
:1004200001CB38BF00F8013B11F0030300F0258039
:10043000083AC0F0088051F8043B083A51F804CB60
:10044000A0E80810F5E7121D5CBF51F8043B40F826
:10045000043BAFF30080D20724BF11F8013B11F831
:1004600001CB48BF11F8012B24BF00F8013B00F875
:1004700001CB48BF00F8012B7047AFF30D802DE989
:100480001050203AC0F00B80B1E81850A0E8185086
:10049000B1E81850A0E81850203ABFF4F5AF5FEA71
:1004A000027C24BFB1E81850A0E8185044BF18C916
:1004B00018C0BDE81050AFF32D805FEA827C24BFE6
:1004C00051F8043B40F8043B08BF7047D20728BFEF
:1004D00031F8023B48BF11F8012B28BF20F8023B3E
:1004E00048BF00F8012B7047AFF30F804FF00002B8
:1004F000AFF30F800429C0F0128010F0030C00F05D
:100500001D80CCF1040CBCF1020F18BF00F8012BC8
:10051000A8BF20F8022BA1EB0C0100F00FB85FEA96
:10052000C17C24BF00F8012B00F8012B48BF00F864
:10053000012B7047AFF30F804FF00002AFF30D8037
:100540002DE90050134694469646203922BFA0E874
:100550000C50A0E80C50B1F12001BFF4F7AF09072F
:1005600028BFA0E80C5048BF0CC0BDE80050AFF356
:100570002D80890028BF40F8042B08BF704748BF72
:1005800020F8022B11F0804F18BF00F8012B7047A4
:10059000AFF30F800446AFF300802046FFF7B8FEAC
:1005A000AFF30F8026211820C0F20201ABBE00BFBE
:1005B000FEE7AFF30F807047AFF30D8080B54DF8C5
:1005C00004CD81B001F0FFFFF1EE100A4EF63C7150
:1005D000CEF20001086001B05DF804CBBDE88040B8
:1005E000AFF32D8070470000AFF30F80FFE7FEE709
:1005F000AFF30F80FFE7FEE7AFF30F80FFE7FEE703
:10060000AFF30F80FFE7FEE7AFF30F80FFE7FEE7F2
:10061000AFF30F80FFE7FEE7AFF30F80FFE7FEE7E2
:10062000AFF30F80FFE7FEE7AFF30F80FFE7FEE7D2
:10063000AFF30F80FFE7FEE7AFF30F80FFE7FEE7C2
:10064000AFF30F80FFE7FEE7AFF30F80FFE7FEE7B2
:10065000AFF30F80FFE7FEE7AFF30F80FFE7FEE7A2
:10066000AFF30F80FFE7FEE7AFF30F80FFE7FEE792
:10067000AFF30F80FFE7FEE7AFF30F80FFE7FEE782
:10068000AFF30F80FFE7FEE7AFF30F80FFE7FEE772
:10069000AFF30F80FFE7FEE7AFF30F80FFE7FEE762
:1006A000AFF30F80FFE7FEE7AFF30F80FFE7FEE752
:1006B000AFF30F80FFE7FEE7AFF30F80FFE7FEE742
:1006C000AFF30F80FFE7FEE7AFF30F80FFE7FEE732
:1006D000AFF30F80FFE7FEE7AFF30F80FFE7FEE722
:1006E000AFF30F80FFE7FEE7AFF30F80FFE7FEE712
:1006F000AFF30F80FFE7FEE7AFF30F80FFE7FEE702
:10070000AFF30F80FFE7FEE7AFF30F80FFE7FEE7F1
:10071000AFF30F80FFE7FEE7AFF30F80FFE7FEE7E1
:10072000AFF30F80FFE7FEE7AFF30F80FFE7FEE7D1
:10073000AFF30F80FFE7FEE7AFF30F80FFE7FEE7C1
:10074000AFF30F80FFE7FEE7AFF30F80FFE7FEE7B1
:10075000AFF30F80FFE7FEE7AFF30F80FFE7FEE7A1
:10076000AFF30F80FFE7FEE7AFF30F80FFE7FEE791
:10077000AFF30F80FFE7FEE7AFF30F80FFE7FEE781
:10078000AFF30F80FFE7FEE7AFF30F80FFE7FEE771
:10079000AFF30F80FFE7FEE7AFF30F80FFE7FEE761
:1007A000AFF30F80FFE7FEE7AFF30F80FFE7FEE751
:1007B000AFF30F80FFE7FEE7AFF30F80FFE7FEE741
:1007C000AFF30F80FFE7FEE7AFF30F80FFE7FEE731
:1007D000AFF30F80FFE7FEE7AFF30F80FFE7FEE721
:1007E000AFF30F80FFE7FEE7AFF30F80FFE7FEE711
:1007F000AFF30F80FFE7FEE7AFF30F80FFE7FEE701
:10080000AFF30F80FFE7FEE7AFF30F80FFE7FEE7F0
:10081000AFF30F80FFE7FEE7AFF30F80FFE7FEE7E0
:10082000AFF30F80FFE7FEE7AFF30F80FFE7FEE7D0
:10083000AFF30F80FFE7FEE7AFF30F80FFE7FEE7C0
:10084000AFF30F80FFE7FEE7AFF30F80FFE7FEE7B0
:10085000AFF30F80FFE7FEE7AFF30F80FFE7FEE7A0
:10086000AFF30F80FFE7FEE7AFF30F80FFE7FEE790
:1008700010B500F1280151E8002F12B9BFF32F8FF6
:1008800004E0531E41E8003404B1F4E772B12C30A7
:100890000121006850B1821CD2E84F3FC2E8441FDA
:1008A00004B1F9E71A0602D00830F2E7002010BDC3
:1008B00070B5024652F8305F4DB1CC7800235DB17F
:1008C0002E46ED78A5420DD275683346F7E7002332
:1008D000C162C1E901330DE00024C1E9014300F127
:1008E0002C0403E0C1E9016306F108042160002B38
:1008F00018BF1A1D1160283050E8001F4A1C40E83C
:10090000002303B1F8E770BDD1E9012312B1936070
:100910008B6800E0C362191D002B08BF00F1300195
:100920000A60704700000000AFF30F80FFE7FEE7AA
:10093000AFF30F80FFE7FEE7AFF30F80FFE7FEE7BF
:1009400001480068704700BF10E000E021682046C1
:10095000D4E9022300F06EBF0021002206460027E2
:1009600001F0C4B9204601F04FB9000000000000BA
:10097000AFF30F80FFE7FEE7AFF30F8084B072B6EE
:1009800048F61860C3F200100090009880F30988C0
:1009900048F62020C3F200100190019981F30A88E3
:1009A0000290029880F30B8848F61860C3F200109A
:1009B000039003994EF6A550CFF6F56048600860A5
:1009C00000F016F8FFF73CFCAFF30F80FFE7FEE7FF
:1009D000AFF30F80FFE7FEE7AFF30F80FFE7FEE71F
:1009E000AFF30F80FFE7FEE7AFF30F80FFE7FEE70F
:1009F000AFF30D8080B54DF804CD81B040F200001A
:100A0000C1F200104EF60851CEF2000108604EF21D
:100A10000031CEF20101086840F2333290430860A1
:100A20004EF68852CEF20002106840F4700010605A
:100A3000086840F0100008604EF61451CEF2000134
:100A4000086840F400200860086840F480200860CE
:100A5000BFF34F8FBFF36F8F40F20401C3F2001159
:100A600047F64000C0F27D10086040F20001C3F27A
:100A70000011086001F00CFA00F022F801B05DF8F6
:100A800004CBBDE88040AFF32D807047000000002C
:100A9000AFF30F80FFE7FEE7AFF30F80FFE7FEE75E
:100AA000AFF30F80FFE7FEE7AFF30F80FFE7FEE74E
:100AB000AFF30F80FFE7FEE7AFF30F80FFE7FEE73E
:100AC000AFF30F804EF6D851CEF20001002008603F
:100AD0004EF6DC51CEF200014FF0817008604EF608
:100AE000E051CEF200014FF6E370C0F21F10086033
:100AF0004EF6D051CEF20001012008604EF61051A2
:100B0000CEF20001086840F0080008604EF60C5173
:100B1000CEF20001086849F6F772104044F2000274
:100B2000C0F2FA52104308604EF68C51CEF200012A
:100B3000086840F4406008604EF63471CEF200015F
:100B40000868042262F39C6008607047B0B5104AE0
:100B50000023443215462C683CB12569A94209D3CB
:100B6000491B04F10C052346F5E700240161C0E9A7
:100B7000023406E001612569C0E90234691AA06007
:100B80002161002B18BF03F10C021060B0BD00BF43
:100B90000800003100000000AFF30F80FFE7FEE720
:100BA000AFF30F80FFE7FEE7AFF30F80FFE7FEE74D
:100BB000AFF30F80FFE7FEE7AFF30F80FFE7FEE73D
:100BC000AFF30F80FFE7FEE7AFF30F80FFE7FEE72D
:100BD000AFF30F80FFE7FEE7AFF30F80FFE7FEE71D
:100BE000AFF30F80FFE7FEE7AFF30F80FFE7FEE70D
:100BF000AFF30F80FFE7FEE7AFF30F80FFE7FEE7FD
:100C0000AFF30F80FFE7FEE7AFF30F80FFE7FEE7EC
:100C1000AFF30F80FFE7FEE7AFF30F80FFE7FEE7DC
:100C2000AFF30F80FFE7FEE7AFF30F80FFE7FEE7CC
:100C3000AFF30F80FFE7FEE7AFF30F80FFE7FEE7BC
:100C4000AFF30D8080B54DF804CD81B0009001F078
:100C5000F7F838B1FFE7009800684FF0FF3100F077
:100C6000C5FCFFE701B05DF804CBBDE88040AFF301
:100C70002D80704700000000AFF30D8080B54DF867
:100C800004CD81B000900098006800F0C1FC01B074
:100C90005DF804CBBDE88040AFF32D8070470000C5
:100CA000AFF30D8080B54DF804CD83B002900020E5
:100CB00000F0C0FC029908600298006818B1FFE7D4
:100CC0000120019006E0002001900299052000F02B
:100CD000FAFCFFE7019803B05DF804CBBDE8804063
:100CE000AFF32D8070470000AFF30D8080B54DF855
:100CF00004CD81B0009001F0A3F828B1FFE700987F
:100D0000006800F0A9FCFFE701B05DF804CBBDE886
:100D10008040AFF32D807047AFF30D8080B54DF864
:100D200004CD81B000F0D4FB01B05DF804CBBDE888
:100D30008040AFF32D807047AFF30D8080B54DF844
:100D400004CD91B0DDF85CC0DDF858C0DDF854C0CA
:100D5000DDF850C00F900E910D920C930F98006823
:100D6000006800900F980E990BAA00F0C1F838B1F6
:100D7000FFE70F980D9906AA00F0BAF820B9FFE72F
:100D800003208DF8430098E00B980699884204D020
:100D9000FFE705208DF843008FE00B980C99086061
:100DA00000984069411D012088400A900E9A0A99D6
:100DB000B2FBF1F000FB112048B9FFE70D98421C8F
:100DC0000A99B2FBF1F000FB112020B1FFE70420EB
:100DD0008DF8430071E00E980B990A688968801AB3
:100DE000084402900D980B990A688968801A084493
:100DF000019001980A99B0FBF1F00590059840091F
:100E0000049002980A99B0FBF1F009900998400902
:100E1000089009980599884204D9FFE705208DF8C4
:100E200043004AE004980899401A01301599086077
:100E30000898149908600098006907900498079929
:100E4000884205D8FFE708980799884204D9FFE748
:100E5000FF208DF8430030E0099800F01F010120C9
:100E600000FA01F14942169A11600599013101F029
:100E70001F0188400138179908601798006828B941
:100E8000FFE717994FF0FF300860FFE708980499D3
:100E900088420ED1FFE71698006817990968484004
:100EA000C043039003981699086003981799086047
:100EB000FFE700208DF84300FFE79DF9430011B0E4
:100EC0005DF804CBBDE88040AFF32D807047000093
:100ED000AFF30F8082B00190019800680068009025
:100EE0000098D0F8E00FC0B202B0704700000000D8
:100EF000AFF30F8086B0049003910292002001901E
:100F0000FFE7019804990968097A88421ED2FFE731
:100F1000049800684068019950F8210000900398F7
:100F20000099096888420CD3FFE703980099496843
:100F3000884206D8FFE700980299086001200590D2
:100F400007E0FFE7019801300190DAE70020059003
:100F5000FFE7059806B07047AFF30D8080B54DF8F8
:100F600004CD83B000200190029001F005F801F05B
:100F700003FB019803B05DF804CBBDE88040AFF3FC
:100F80002D80704700000000AFF30D8080B54DF854
:100F900004CD93B0119010910F928DF83B301198C1
:100FA000006800680590119840680078C00720B973
:100FB000FFE702208DF84B00BAE0119810990F9AC4
:100FC000EC460AABCCF80C300CABCCF8083008ABD4
:100FD000CCF804300DABCCF8003007ABFFF7ACFE1B
:100FE0008DF83A000D9808990844013809909DF948
:100FF0003A0078B1FFE79DF93A00B0F1FF3F04DC19
:10100000FFE705208DF84B0092E09DF83A008DF83F
:101010004B008DE00798007B9DF83B10884204D080
:10102000FFE706208DF84B0082E0BFF35F8F0D983D
:10103000059988610898012820D1FFE70598C069C3
:1010400006909DF83B00012805D1FFE70C99069812
:101050000843069004E00C99069888430690FFE741
:101060000D980599886106980599C861BFF34F8F5F
:10107000BFF36F8F00208DF84B0059E00598C069D1
:1010800006909DF83B00012805D1FFE70C990698D2
:101090000843069004E00C99069888430690FFE701
:1010A0000D980599886106980599C8610D980130D9
:1010B0000B90FFE70B980999884216D2FFE70B982F
:1010C000059988619DF83B00012805D1FFE7059946
:1010D0004FF0FF30C86103E005990020C861FFE7C9
:1010E000FFE70B9801300B90E4E7099805998861B8
:1010F0000598C06906909DF83B00012805D1FFE7DF
:101100000A9906980843069004E00A9906988843CD
:101110000690FFE709980599886106980599C861C6
:10112000BFF34F8FBFF36F8F00208DF84B00FFE7A9
:101130009DF84B0013B05DF804CBBDE88040AFF3E1
:101140002D80704700000000AFF30F8084B0029044
:101150000191029800680068009002984068007849
:10116000C00720B9FFE702208DF80F0011E00198B9
:1011700020B9FFE701208DF80F000AE000984069D0
:10118000411D012088400199086000208DF80F0062
:10119000FFE79DF80F0004B070470000000000005A
:1011A000AFF30F8084B0029001910298006800684C
:1011B0000090029840680078C00720B9FFE702203D
:1011C0008DF80F000EE0019820B9FFE701208DF89F
:1011D0000F0007E0009800680199086000208DF872
:1011E0000F00FFE79DF80F0004B0704700000000FB
:1011F000AFF30D8080B54DF804CD97B015901491E4
:10120000139212931598006800680790159840682B
:101210000078C00720B9FFE702208DF85B0003E1EA
:10122000129820B9FFE701208DF85B00FCE01299CD
:101230000220087007984069411D012088401090E5
:10124000109801380F900F991498884314900F99B3
:1012500013988843139010981399084401381390F9
:1012600015981499139AEC4609ABCCF80C300CABDA
:10127000CCF8083008ABCCF804300DABCCF800301B
:1012800006ABFFF759FD8DF83B000D98089908440F
:1012900001380A909DF93B0078B1FFE79DF93B00CA
:1012A000B0F1FF3F04DCFFE705208DF85B00BBE0F9
:1012B0009DF83B008DF85B00B6E00D9807998861BA
:1012C0000898012820D1FFE70798C06905900C997C
:1012D000059808400590059820B9FFE7129900206D
:1012E00008700DE005980C99484004D0FFE712996A
:1012F0000220087003E0129901200870FFE7FFE761
:1013000000208DF85B008FE00798C0690C990840B9
:101310000590059820B9FFE712990020087010E0A9
:1013200005980C99484007D0FFE7129902200870F1
:1013300000208DF85B0077E0129901200870FFE72C
:10134000FFE7129800788DF847000D9801300B9058
:10135000FFE70B980A99884234D2FFE70B98079968
:1013600088610798C0690590059820B9FFE7129930
:10137000002008700FE00598013020B9FFE71299AE
:101380000120087006E012990220087000208DF8F4
:101390005B0049E0FFE7129800789DF8471088420B
:1013A00007D0FFE712990220087000208DF85B003B
:1013B0003AE0129800788DF84700FFE70B9801306B
:1013C0000B90C6E70A98079988610798C069099940
:1013D00008400590059820B9FFE712990020087091
:1013E00010E005980C99484007D0FFE712990220B9
:1013F000087000208DF85B0016E01299012008703B
:10140000FFE7FFE7129800789DF84710884207D061
:10141000FFE712990220087000208DF85B0003E0BE
:1014200000208DF85B00FFE79DF85B0017B05DF8CA
:1014300004CBBDE88040AFF32D8070470000000072
:10144000AFF30D8080B54DF804CD83B001900198C5
:10145000FFF73EFD0199496848600198406840687F
:1014600060280AD0FFE7019840684068652804D0EA
:10147000FFE707208DF80B0007E001984168012085
:10148000087000208DF80B00FFE79DF80B0003B0FB
:101490005DF804CBBDE88040AFF32D8070470000BD
:1014A000EFF3058048B9EFF3108030B9EFF3118006
:1014B00018B9EFF31480C00702D10448007A7047CE
:1014C000DFF804C000DF7047911F001108000031F1
:1014D00080B500F0FAF8EFF3058028B9EFF310803B
:1014E00010B9EFF3118010B16FF0050080BDDFF887
:1014F00008C000DF80BD00BF9D1F0011F8B5054684
:10150000EFF3058014460E4628B9EFF3108010B9AA
:10151000EFF31180F0B1D5B12878FA2817D16FF028
:101520000300EEB1E3B92846FFF7A2F9C8B16A6A31
:1015300000F10C0107463046FEF758FF0CB1F87871
:1015400020703846FD6000F061FA0020F8BD6FF0B1
:101550000300F8BD2846DFF810C03146224600DF00
:10156000F8BD6FF00200F8BD9D2000112DE9F0419B
:101570000646EFF3058090460D4628B9EFF310803C
:1015800010B9EFF3118018B3EEB13078FA281AD100
:101590006FF00307CDB1C3B906F10C0000F008F9F4
:1015A000F0B1726A04460C302946FEF71FFFF9209D
:1015B000002720702046C4E9015684F80380A770F4
:1015C00000F024FA01E06FF003073846BDE8F0812F
:1015D0003046DFF814C02946424600DFBDE8F081FE
:1015E0006FF00207F1E700BF7D220011EFF30582E3
:1015F0002AB9EFF3108212B9EFF3118212B16FF032
:1016000005007047DFF804C000DF70472923001190
:10161000EFF3058129B9EFF3108111B9EFF31181CF
:1016200011B16FF005007047DFF804C000DF7047AC
:10163000B5230011EFF3058129B9EFF3108111B93A
:10164000EFF3118109B100207047DFF808C000DF17
:10165000704700BF5D240011EFF3058129B9EFF356
:10166000108111B9EFF3118111B16FF005007047CE
:10167000DFF804C000DF7047C5240011000000003F
:10168000AFF30F8083B002900191029801380146B8
:101690000091042814D80099DFE801F00306090C32
:1016A0000F00AFF30F800CE0AFF30F8009E0AFF352
:1016B0000F8006E0AFF30F8003E0AFF30F8000E090
:1016C000FFE7FFE7FEE7FFF7DBBF7047F0B5A8B124
:1016D000002379B3032A2DD803460F3153F8085F4E
:1016E00021F007012C46EE1A5D6825F00307F61B72
:1016F0008E4205D225682346002DF3D1002319E040
:10170000D0E900760E444660384450F8047CB74275
:101710003EBF083846605D6845B125F003001143BF
:10172000C450184418600346416002E041EA0200D8
:10173000586008331846F0BDB0B560B159B100F13A
:101740000804A1F108020023944206D0254624682B
:101750002B46002CF8D10020B0BD51F8045C446841
:1017600025F00305641B446013B11068186002E0A3
:10177000002041F8040C0120B0BD18B10246084316
:10178000400701D000207047002018290FD310B562
:101790008B18A3F10804946043F8080C1024936894
:1017A000C2E900145C60D0600120BDE810407047C1
:1017B00010B5002817D0014600F1140252E8000FBE
:1017C00010B9BFF32F8F04E0036842E8003404B17E
:1017D000F4E740B1043151E8002F531C41E80034D4
:1017E00004B1F8E710BD002010BDB0B500281ED030
:1017F000C2688A421BD802698A4218D900F11402D1
:1018000013680B60BFF35F8F52E8003F0C689C4287
:10181000F6D142E8001505B1F2E7043050E8001FA8
:101820004A1E40E8002303B1F8E70020B0BD6FF086
:101830000300B0BDB0B598B191B18AB104460020A3
:101840009BB1C4E9001004F1080002FB013563619B
:101850002CC0481E30B19918196001380B46F9E7C1
:101860000020B0BD002018600120B0BDF8B50446CE
:10187000807848B3E56821462846FFF745F805F12A
:101880000C060020207021463046FFF7AEFFA86806
:10189000C8B13046FFF78CFFA8B10446284600F0D7
:1018A000B3F9FFF759F8304600F0F2F941680646FF
:1018B0006A6A04F10C00FEF799FDF920A770207008
:1018C000B068E07021E0F8BDA568A868E8B140788C
:1018D00083281AD1284600F097F9FFF73DF83046E3
:1018E00000F0D6F9064640686A6A04F10C01FEF77A
:1018F0007DFDB06808B1E1780170277005F10C003A
:101900002146BDE8F840FFF770BF28462146BDE8F4
:10191000F840FEF7CDBF000080B507480821D0E9A8
:101920001A2000F021FCF049C8640021002808BFFB
:101930004FF0FF31084680BDE4250011B0B5C278F4
:10194000920718D5C068C36A90F82120DC78A407F4
:101950000AD59C688C4208BF8C682CB194F9204051
:1019600055B2AC42C8BFE2B25B69002BEED190F831
:101970002010914200D1B0BD80F82020BDE8B040D9
:1019800000F06BB9B0B5D84CB4F8540004F156016E
:10199000D1E85F2F12B9BFF32F8F04E0531EC1E8C7
:1019A000553F05B1F4E711042BD004F15A01D1E8F9
:1019B0005F2F531C984200D80023C1E8553F05B162
:1019C000F5E790B2E16D51F82000D0B10178F1391E
:1019D0000829D9D8DFE801F006050905050C0F052F
:1019E0001200D1E7216E8847CEE7616E8847CBE7CA
:1019F000A16E8847C8E7E16E8847C5E7216F884731
:101A0000C2E70020BDE8B04000F0D6B870B501468E
:101A1000E54800F15603B0F85420D3E85F4FA242E6
:101A200002D8BFF32F8F04E0651CC3E8565F06B1F0
:101A3000F3E7A3B2934214D200F15803D3E85F4F07
:101A4000651CAA4200D80025C3E8565F06B1F5E739
:101A5000A2B2C36D43F82210417A39B101218172DB
:101A600070BD0220BDE87040FFF72DBE02484FF068
:101A70008051016070BD00BF04ED00E010B5012190
:101A800090F920304170ED491C310A46896841B116
:101A900091F920409C42F8DCC0E902120C319060C0
:101AA00004E00021C0E9021202F10801086010BD43
:101AB000B0B54A1C0DD0E14A00232C3215462C68E3
:101AC000E4B1E569A94221D3491B04F1100523467D
:101AD000F5E7DA49002301F130021446194623687C
:101AE00003F11004002BF9D14FF0FF33C361002341
:101AF000C0E90431C1B101F1100215E0C161002B50
:101B0000C0E9044318BF03F110020DE0002BC0E947
:101B10000443C16118BF03F1100210602CB1E269E7
:101B2000511AE16104F114021060B0BDC26901698B
:101B3000531C0AD021B143694B61CB691A44CA6175
:101B400042693AB9BD4AD16207E009B142694A61C6
:101B500042692AB10023116143610021C1617047CC
:101B6000B64A1163F9E700BF70B5B44DEC6A1CB119
:101B7000E0690138E06100D070BD04266078133858
:101B8000B6EB301F08D120460178F12901D1C06899
:101B9000FAE72146FFF7D2FE204600F054F820462F
:101BA00000F06EF8246924B1E0690028E6D0002036
:101BB0006061EC6270BD00BF70B5F74E0546746998
:101BC000307A65B1022805D194F9200095F92010EA
:101BD000814211DC2846BDE8704000F051B802286F
:101BE00010D1756A75B194F9200095F920108142E1
:101BF00008DD284600F027F82046FFF73FFF0220C7
:101C0000B561687070BD00BF0146806882688A60F7
:101C100002B1D1600021C160704710B591F9203048
:101C20000246806840B190F920409C42F8DAC1E950
:101C300002020C30916004E00020C1E9020202F1CE
:101C40000800016010BDC16831B182688A60826895
:101C500002B1D1600021C1607047B0B504460546AD
:101C600025B12878F12802D1ED68F9E7B0BD20460A
:101C7000FFF7E9FF28462146BDE8B040FFF7CDBF9A
:101C8000014601204870C4481C30FFF7C6BF00BFA2
:101C900090F82210C9064FF0200158BF6021806BD8
:101CA00008447047FA49886102214170704700BFBB
:101CB00010B5F74C227A022A14D1626A92B1626995
:101CC00050701046FFF7F4FE606A8168616211B1DE
:101CD00004F11C02CA600221A06141700021C160B0
:101CE000012010BD002010BD08000031B0B5044631
:101CF00090F822001546C0064FF0200058BF602023
:101D0000A26B81502046FFF711FF2046002DBDE851
:101D1000B04008BFFFF7B4BFFFF74EBFB0B5FEF746
:101D20000FFEDB4DE8680130E860FFF71DFF002083
:101D3000FFF742FF286D00B18047296C71B1A86997
:101D4000EA6B904205D0C269E86322B9C1610A46D4
:101D500001E0C2691AB1511EC16100D0B0BD297A3B
:101D60000229FBD16C6A002CF8D090F8200094F87E
:101D700020108142F2D12046FFF765FFE86BFFF7A4
:101D80007FFF2046FFF78EFF286CEC63E061B0BD5B
:101D900080B5FFF7C1FD10B14FF0FF3080BDF148B5
:101DA00002490165002080BD08000031D11D0011ED
:101DB00082B004466D462046294600224FF0FF338C
:101DC000FFF79CFB0028F6D1DDE900108847F2E719
:101DD0002DE9F041E34D6C6C74B36E694FF001086E
:101DE00020690138206134B3206920BBE06808B164
:101DF000A1688160686404F11801E86C0022002386
:101E0000FFF7B4FB60B1D5E9057021466861032096
:101E1000FFF759FC696986EA0700084308BF0646D0
:101E2000E078012811BF84F8018061692046FEF73F
:101E30008DFE6C6CD7E76E61BDE8F0810800003163
:101E4000AFF30D8080B54DF804CD81B048F200604D
:101E5000C3F20010007868B9FFE7FFF721FB022802
:101E600007DBFFE748F20061C3F2001101200870B0
:101E7000FFE7FFE748F20060C3F20010007801B00E
:101E80005DF804CBBDE88040AFF32D8070470000C3
:101E9000AFF30D8080B54DF804CD97B042F28C635E
:101EA000C1F20013186859689A68DB681693159296
:101EB0001491139013A8129012A811904FF0AE40F5
:101EC0000E9011980F9001208DF8400042F29C6214
:101ED000C1F20012116852680D920C910EA90A917C
:101EE0000CA90B918DF827000AA80490FFF7A8FA17
:101EF000014604988DF8261000210091089108A948
:101F0000FFF74EF90099024604988DF81F200691BC
:101F100006A9FFF719F9014604988DF817104FF03C
:101F2000817101914FF6FF72C0F21F1202920DF102
:101F300016030393FFF75CF90199029A034604988C
:101F40008DF815309DF82730FFF71EF80199029A99
:101F5000039B844604988DF814C0FFF749F98DF867
:101F6000150017B05DF804CBBDE88040AFF32D80BD
:101F70007047000000000000AFF30F8041F222150F
:101F800085F3248885F3A08885F3A4887047000032
:101F9000E448007A704700BF080000312DE9F8439B
:101FA000DFF8D08598F8080028B101286CD04FF0F0
:101FB000FF30BDE8F883374FD7E90B41388AA8F8DE
:101FC0005400D7E90202C8F840002046C8F85C2057
:101FD000FFF7D3FB08B1C8F88040D7E90541DFF827
:101FE000B890D7E907562046C847D8F8801000288F
:101FF00018BF2146C8F8741028463146C847D8F89B
:102000008010002818BF2946C8F87810D7E9094180
:102010002046C847D8F88010002818BF21467C6B9E
:10202000C8F87C101CB1FEF791FCC8F88440BC6B6A
:102030001CB1FEF78BFCC8F88840FC6B1CB1FEF7A6
:1020400085FCC8F88C403C6C1CB1FEF77FFCC8F8DE
:1020500090407C6C1CB1FEF779FCC8F89440BC6CD5
:102060001CB1FEF773FCC8F89840FC6C1CB1FEF77D
:102070006DFCC8F89C403C6D1CB1FEF767FCC8F8CD
:10208000A040012088F808000020BDE8F88300BFC8
:1020900008000031E42500117B1700112DE9F04103
:1020A000002848D004460078FA2844D10F46002979
:1020B00041D020461E461546FEF7DAFB00283FD0E9
:1020C000804620464146FEF71FFC626A08F10C017B
:1020D0003846FEF78BF915B198F80300287004F123
:1020E0000C060025414688F800503046FFF77DFB7E
:1020F000A06810B33046FFF75BFB0025E8B1064649
:10210000FEF730FC002101220746FFF7EFFD3846BD
:10211000FFF7BEFD41680746626A06F10C00FEF754
:1021200065F9F92031463070B868F0702046B57016
:10213000FEF7BEFB01E06FF003052846BDE8F08125
:1021400066B183203146FFF7B3FD20B1DC48416919
:102150002046FFF762FD6FF00105EEE76FF0020524
:10216000EBE700BF080000312DE9F84F48B10D46FC
:1021700039B10446B0FA80F0B5FA85F10844202858
:1021800003D200263046BDE8F88F05F10F0020F09D
:10219000030808FB04F95AB19668D2F800A0D2E906
:1021A00004707EB1B107ECD1D1683429E9D30CE0D9
:1021B0004FF0000A0027EF49D1F8A00058B1FFF70F
:1021C000F7FA0EE0D1680029DBD157B3B907D8D1AF
:1021D0004845D6D327E0D1F8800034210122FFF70B
:1021E00075FA06464FF0010B67BB5EB3CDF800A051
:1021F0004946DFF880A30022DAF87C00FFF766FA90
:10220000074620B138464946FEF76EF916E0BBF1A5
:10221000000F12D0DAF8A00050B13146FFF7E5FA0E
:102220000BE00028ADD1002EC5D04FF0000BDBE74E
:10223000DAF880003146FFF77FFA0026DDF800A0CB
:102240000BF1020B002E3FF49DAF00202146C6E9A2
:1022500009504246C6E90B003B46C6E901A0FA20F8
:10226000307006F10C0086F802B0FFF7E3FAC148BF
:102270000149016786E700BF6D1800112DE9F041A3
:1022800018B304460078FA281FD10F46E9B1A068B8
:102290001E469046F0B1407883281BD1FEF762FBC2
:1022A0000021012205460026FFF720FD2846FFF702
:1022B000EFFC05464068626A3946FEF797F8A86861
:1022C00028B180F80080002601E06FF00306304658
:1022D000BDE8F08104F10C00FFF76AFA80B1626A90
:1022E00005460C303946FEF781F8F92000262870A3
:1022F0002046294685F80380AE70FEF7D9FAE6E756
:1023000066B193203146FFF7D3FC20B1994841696B
:102310002046FFF782FC6FF00106D8E76FF0020657
:10232000D5E700BF0800003170B504469148456903
:102330004DB32CB32078F52822D1207E30B30E4641
:10234000E178CA0702D0E268AA422BD066B38807B8
:102350000AD5E06895F9201090F920208A42BCBF88
:1023600080F82010FFF779FC53203146FFF7A0FCDE
:1023700018B120462946FFF750FC6FF0010070BDF0
:102380006FF0030070BD4FF0FF3070BD0020C4E956
:102390000350E86A606100B104610120EC622076BC
:1023A000002070BDFF2802D16FF0020070BD013027
:1023B000F5E700BFB0B520B304460078F52820D17A
:1023C000207EB8B36169E06809B122690A6100F151
:1023D0002C0223691546002B18BF03F11405296050
:1023E00090F8211012687AB1D3789B0707D59368CB
:1023F0002BB193F920304DB2AB42C8BFD9B21432E1
:10240000F0E76FF00300B0BD90F820208A421CBFB7
:1024100080F82010FFF721FCA06840B12046FFF7AC
:10242000F3FB6FF002010022FFF760FCF4E70020ED
:10243000FFF7C2FBA17800202070C9070DD04D49DD
:10244000D1F8940018B12146FFF7CFF904E0D1F894
:1024500080002146FFF770F90020B0BD70B550B183
:102460008468D0E900657CB1A10710D1C168002063
:102470001C2917D270BD002500263E49D1F89400D2
:1024800038B1FFF795F90AE0C0680028F5D00020C0
:1024900070BDD1F880001C210122FFF717F9044616
:1024A00058B10120A070F520207004F1080011211E
:1024B0006660E570FEF73EF800E00024204670BD3F
:1024C0000800003170B504462A48406970B154B123
:1024D0002178F52907D1217E11B1E268824209D025
:1024E0006FF0020404E06FF0030401E04FF0FF34EA
:1024F000204670BD01392176090601D00024F7E796
:10250000616909B122690A6100F12C02236915464B
:10251000002B18BF03F11405296090F821101268F0
:1025200062B1D3789B0707D593682BB193F920301C
:102530004DB2AB42C8BF19461432F0E780F8201004
:10254000A06888B12046FFF75FFB00210022054606
:102550000026FFF7CBFBE86AC4E90356606100B1CF
:1025600004610120EC62207600200024FFF724FBA8
:10257000BEE700BF08000031AFF30D8080B54DF815
:1025800004CD83B04FF08170006802900420C0F247
:1025900002100068019001982DE9F00F20F0010071
:1025A000A2B02DEC000A9FE8FE9F84473DEC000A94
:1025B00022B0BDE8F00F03B05DF804CBBDE8804069
:1025C000AFF32D807047AFF30F80F1EE100A4FF696
:1025D000FF71C0F2C03120EA010040F04070E1EE2E
:1025E000100A704701000000E80300000500000029
:1025F000B0000031100000000000000000000000EA
:1026000000000000000000000000000000000000CA
:10261000F000003100800000000000000000000019
:1026200000000000000000000000000000000000AA
:102630000000000000000000000C0000A8260011AF
:10264000E4260011B11D0011911D0011CC260011CE
:102650000400000074810031FC81003100000000A2
:10266000000000000000000000000000000000006A
:10267000000000000000000000000000000000005A
:1026800000000000F08000312481003100000201D0
:10269000FFFF1F0100000200010000000000000019
:1026A00065000000000000000000000000000000C5
:1026B00074810031440000000082003100020000FB
:1026C0000100000000000000000000000000000009
:1026D00000000000F080003134000000248100314F
:1026E000500000000000000000000000B881003130
:1026F00044000000008400310002000028000000B7
:1027000000000000000000005254582056352E35BD
:102710002E3400003827001100000031B000000006
:1027200088020011E8270011B00000315485000034
:10273000A80200110000000040787D0140787D0172
:1027400008270011D4B3FB020000000000000000C5
:102750000000000000000000000000000000000079
:102760000000000000000000000000000000000069
:102770000000000000000000000000000000000059
:102780000000000000000000000000000000000049
:102790000000000000000000000000000000000039
:1027A0000000000000000000000000000000000029
:1027B0000000000000000000000000000000000019
:1027C0000000000000000000000000000000000009
:1027D00000000000000000000000000000000000F9
:1027E00000000000000000000000000000000000E9
:1027F00000000000000000000000000000000000D9
:0400000511000241A3
:00000001FF
