:020000041100E9
:10000000188E0031790900112909001149080011E1
:1000100069080011F1050011890B0011E9090011AF
:10002000000000000000000000000000210300119B
:100030007106001100000000C1030011D10300117E
:100040003909001131090011C9090011790A00119B
:10005000810A0011890A0011000000000000000060
:100060000000000059080011710900116108001119
:10007000E905001100000000F90500110000000072
:1000800081060011000000000000000000000000D8
:100090000000000000000000000000000000000060
:1000A000000000000000000000000000910A0011A4
:1000B0000106001109060011000000000000000008
:1000C000710A0011210B0011510B0011290B0011B5
:1000D000590B0011310B0011610B0011390B00118C
:1000E000690B0011410B0011710B0011E90A00119D
:1000F000F10A0011F90A0011010B0011090B00119E
:10010000190B00117906001151080011990A00110C
:10011000810B0011D1090011D9090011E109001169
:10012000000000001906001121060011110600113F
:100130003106001139060011290600114906001187
:1001400051060011410600116106001169060011F7
:100150005906001109070011910700111908001133
:100160004108001189060011C1060011C9060011DD
:10017000D1060011D9060011E1060011E9060011AF
:10018000F1060011F9060011010700119106001196
:1001900099060011A1060011A9060011B10600116F
:1001A000B90600111107001149070011510700118C
:1001B000590700116107001169070011710700114B
:1001C0007907001181070011890700111907001133
:1001D000210700112907001131070011390700110B
:1001E0004107001199070011D1070011D90700112B
:1001F000E1070011E9070011F1070011F9070011EB
:10020000010800110908001111080011A1070011CF
:10021000A9070011B1070011B9070011C1070011AA
:10022000C907001121080011290800113108001127
:1002300039080011490B0011790B0011110B001145
:10024000AFF30F8000F002F800F052F8AFF30F8028
:100250000BA090E8000C82448344AAF10107AFF39D
:100260000F80DA4501D100F043F8AFF20D0EBAE885
:100270000F0013F0010F18BFFB1A43F001031847DA
:10028000881B0000A81B0000AFF30F80103A24BFAA
:1002900078C878C1FAD8520724BF30C830C144BFEB
:1002A00004680C6070470000AFF30F800023002447
:1002B00000250026103A28BF78C1FBD8520728BF76
:1002C00030C148BF0B607047AFF30D802DE93F5040
:1002D00000F072F9BDE83F50AFF32D807047AFF3E7
:1002E0000D802DE93050BDE83050AFF32D807047C0
:1002F000AFF30F80DFF814D003B400F0B5FC03BCFB
:10030000FFF7E2FF00F0C0FC00F042F9188E003168
:10031000AFF30F8003B4FFF7E2FF03BC00F040F936
:100320001EF0040F0CBFEFF30880EFF30980816922
:1003300011F8021C002935D101B590E80F10E047F3
:10034000BDE80050CCF80000254B93E80600914230
:1003500008BF70471A6041B91EF0100F10D1214B31
:10036000186820F0010018600AE02CE9F00F1EF078
:10037000100F08BF2CED108AC1F838C081F822E0B8
:10038000906B116B81F30B8892F8221061F0FF0ED5
:100390001EF0100F08BFB0EC108AB0E8F00F80F329
:1003A00009887047104A13689942FAD801B552F883
:1003B00021C00FC8E047BDE80050CCF800007047EE
:1003C00001B500F007FFBDE80140EFF3098CBBE782
:1003D00001B501F0CBF8BDE80140EFF3098CB3E7BC
:1003E0001C00003134EF00E0981D0011AFF30F80C6
:1003F000032A40F2308010F0030C00F0158011F851
:10040000013BBCF1020F624498BF11F801CB00F828
:10041000013B38BF11F8013BA2F1040298BF00F87C
:1004200001CB38BF00F8013B11F0030300F0258039
:10043000083AC0F0088051F8043B083A51F804CB60
:10044000A0E80810F5E7121D5CBF51F8043B40F826
:10045000043BAFF30080D20724BF11F8013B11F831
:1004600001CB48BF11F8012B24BF00F8013B00F875
:1004700001CB48BF00F8012B7047AFF30D802DE989
:100480001050203AC0F00B80B1E81850A0E8185086
:10049000B1E81850A0E81850203ABFF4F5AF5FEA71
:1004A000027C24BFB1E81850A0E8185044BF18C916
:1004B00018C0BDE81050AFF32D805FEA827C24BFE6
:1004C00051F8043B40F8043B08BF7047D20728BFEF
:1004D00031F8023B48BF11F8012B28BF20F8023B3E
:1004E00048BF00F8012B7047AFF30F804FF00002B8
:1004F000AFF30F800429C0F0128010F0030C00F05D
:100500001D80CCF1040CBCF1020F18BF00F8012BC8
:10051000A8BF20F8022BA1EB0C0100F00FB85FEA96
:10052000C17C24BF00F8012B00F8012B48BF00F864
:10053000012B7047AFF30F804FF00002AFF30D8037
:100540002DE90050134694469646203922BFA0E874
:100550000C50A0E80C50B1F12001BFF4F7AF09072F
:1005600028BFA0E80C5048BF0CC0BDE80050AFF356
:100570002D80890028BF40F8042B08BF704748BF72
:1005800020F8022B11F0804F18BF00F8012B7047A4
:10059000AFF30F800446AFF300802046FFF7B8FEAC
:1005A000AFF30F8026211820C0F20201ABBE00BFBE
:1005B000FEE7AFF30F807047AFF30D8080B54DF8C5
:1005C00004CD81B001F082FBF1EE100A4EF63C71D1
:1005D000CEF20001086001B05DF804CBBDE88040B8
:1005E000AFF32D8070470000AFF30F80FFE7FEE709
:1005F000AFF30F80FFE7FEE7AFF30F80FFE7FEE703
:10060000AFF30F80FFE7FEE7AFF30F80FFE7FEE7F2
:10061000AFF30F80FFE7FEE7AFF30F80FFE7FEE7E2
:10062000AFF30F80FFE7FEE7AFF30F80FFE7FEE7D2
:10063000AFF30F80FFE7FEE7AFF30F80FFE7FEE7C2
:10064000AFF30F80FFE7FEE7AFF30F80FFE7FEE7B2
:10065000AFF30F80FFE7FEE7AFF30F80FFE7FEE7A2
:10066000AFF30F80FFE7FEE7AFF30F80FFE7FEE792
:10067000AFF30F80FFE7FEE7AFF30F80FFE7FEE782
:10068000AFF30F80FFE7FEE7AFF30F80FFE7FEE772
:10069000AFF30F80FFE7FEE7AFF30F80FFE7FEE762
:1006A000AFF30F80FFE7FEE7AFF30F80FFE7FEE752
:1006B000AFF30F80FFE7FEE7AFF30F80FFE7FEE742
:1006C000AFF30F80FFE7FEE7AFF30F80FFE7FEE732
:1006D000AFF30F80FFE7FEE7AFF30F80FFE7FEE722
:1006E000AFF30F80FFE7FEE7AFF30F80FFE7FEE712
:1006F000AFF30F80FFE7FEE7AFF30F80FFE7FEE702
:10070000AFF30F80FFE7FEE7AFF30F80FFE7FEE7F1
:10071000AFF30F80FFE7FEE7AFF30F80FFE7FEE7E1
:10072000AFF30F80FFE7FEE7AFF30F80FFE7FEE7D1
:10073000AFF30F80FFE7FEE7AFF30F80FFE7FEE7C1
:10074000AFF30F80FFE7FEE7AFF30F80FFE7FEE7B1
:10075000AFF30F80FFE7FEE7AFF30F80FFE7FEE7A1
:10076000AFF30F80FFE7FEE7AFF30F80FFE7FEE791
:10077000AFF30F80FFE7FEE7AFF30F80FFE7FEE781
:10078000AFF30F80FFE7FEE7AFF30F80FFE7FEE771
:10079000AFF30F80FFE7FEE7AFF30F80FFE7FEE761
:1007A000AFF30F80FFE7FEE7AFF30F80FFE7FEE751
:1007B000AFF30F80FFE7FEE7AFF30F80FFE7FEE741
:1007C000AFF30F80FFE7FEE7AFF30F80FFE7FEE731
:1007D000AFF30F80FFE7FEE7AFF30F80FFE7FEE721
:1007E000AFF30F80FFE7FEE7AFF30F80FFE7FEE711
:1007F000AFF30F80FFE7FEE7AFF30F80FFE7FEE701
:10080000AFF30F80FFE7FEE7AFF30F80FFE7FEE7F0
:10081000AFF30F80FFE7FEE7AFF30F80FFE7FEE7E0
:10082000AFF30F80FFE7FEE7AFF30F80FFE7FEE7D0
:10083000AFF30F80FFE7FEE7AFF30F80FFE7FEE7C0
:10084000AFF30F80FFE7FEE7AFF30F80FFE7FEE7B0
:10085000AFF30F80FFE7FEE7AFF30F80FFE7FEE7A0
:10086000AFF30F80FFE7FEE7AFF30F80FFE7FEE790
:1008700010B500F1280151E8002F12B9BFF32F8FF6
:1008800004E0531E41E8003404B1F4E772B12C30A7
:100890000121006850B1821CD2E84F3FC2E8441FDA
:1008A00004B1F9E71A0602D00830F2E7002010BDC3
:1008B00070B5024652F8305F4DB1CC7800235DB17F
:1008C0002E46ED78A5420DD275683346F7E7002332
:1008D000C162C1E901330DE00024C1E9014300F127
:1008E0002C0403E0C1E9016306F108042160002B38
:1008F00018BF1A1D1160283050E8001F4A1C40E83C
:10090000002303B1F8E770BDD1E9012312B1936070
:100910008B6800E0C362191D002B08BF00F1300195
:100920000A60704700000000AFF30F80FFE7FEE7AA
:10093000AFF30F80FFE7FEE7AFF30F80FFE7FEE7BF
:1009400001480068704700BF10E000E021682046C1
:10095000D4E9022300F096BB0021002206460027BE
:1009600000F0ECBD204600F077BD00000000000064
:10097000AFF30F80FFE7FEE7AFF30F8084B072B6EE
:1009800048F61860C3F200100090009880F30988C0
:1009900048F62020C3F200100190019981F30A88E3
:1009A0000290029880F30B8848F61860C3F200109A
:1009B000039003994EF6A550CFF6F56048600860A5
:1009C00000F016F8FFF73CFCAFF30F80FFE7FEE7FF
:1009D000AFF30F80FFE7FEE7AFF30F80FFE7FEE71F
:1009E000AFF30F80FFE7FEE7AFF30F80FFE7FEE70F
:1009F000AFF30F8040F20000C1F200104EF6085134
:100A0000CEF2000108604EF20031CEF2010108681A
:100A100040F23332904308604EF68852CEF2000224
:100A2000106840F470001060086840F01000086022
:100A30004EF61451CEF20001086840F40020086020
:100A4000086840F480200860BFF34F8FBFF36F8FBA
:100A500040F20401C3F2001147F64000C0F27D10DD
:100A6000086040F20001C3F2001108607047000006
:100A7000AFF30F80FFE7FEE7AFF30F80FFE7FEE77E
:100A8000AFF30F80FFE7FEE7AFF30F80FFE7FEE76E
:100A9000AFF30F80FFE7FEE7AFF30F80FFE7FEE75E
:100AA000B0B59E4A0023443215462C683CB12569F6
:100AB000A94209D3491B04F10C052346F5E700249C
:100AC0000161C0E9023406E001612569C0E9023430
:100AD000691AA0602161002B18BF03F10C0210609D
:100AE000B0BD00BF00000000AFF30F80FFE7FEE7DE
:100AF000AFF30F80FFE7FEE7AFF30F80FFE7FEE7FE
:100B0000AFF30F80FFE7FEE7AFF30F80FFE7FEE7ED
:100B1000AFF30F80FFE7FEE7AFF30F80FFE7FEE7DD
:100B2000AFF30F80FFE7FEE7AFF30F80FFE7FEE7CD
:100B3000AFF30F80FFE7FEE7AFF30F80FFE7FEE7BD
:100B4000AFF30F80FFE7FEE7AFF30F80FFE7FEE7AD
:100B5000AFF30F80FFE7FEE7AFF30F80FFE7FEE79D
:100B6000AFF30F80FFE7FEE7AFF30F80FFE7FEE78D
:100B7000AFF30F80FFE7FEE7AFF30F80FFE7FEE77D
:100B8000AFF30F80FFE7FEE7AFF30F80FFE7FEE76D
:100B9000AFF30D8080B54DF804CD81B0009000F02A
:100BA00077FD38B1FFE7009800684FF0FF3100F0A3
:100BB00045F9FFE701B05DF804CBBDE88040AFF335
:100BC0002D80704700000000AFF30D8080B54DF818
:100BD00004CD81B000900098006800F041F901B0A8
:100BE0005DF804CBBDE88040AFF32D807047000076
:100BF000AFF30D8080B54DF804CD83B00290002096
:100C000000F040F9029908600298006818B1FFE707
:100C10000120019006E0002001900299052000F0DB
:100C20007AF9FFE7019803B05DF804CBBDE8804096
:100C3000AFF32D8070470000AFF30D8080B54DF805
:100C400004CD81B0009000F023FD28B1FFE70098AB
:100C5000006800F029F9FFE701B05DF804CBBDE8BA
:100C60008040AFF32D807047AFF30D8080B54DF815
:100C700004CD81B000F054F801B05DF804CBBDE8BC
:100C80008040AFF32D807047AFF30D8080B54DF8F5
:100C900004CD85B00020019004904FF08170006871
:100CA00003900420C0F202100068029041F2221565
:100CB00085F3248885F3A08885F3A48802982DE91C
:100CC000F00F20F00100A2B02DEC000A9FE8FE9F7B
:100CD00084473DEC000A22B0BDE8F00F019805B052
:100CE0005DF804CBBDE88040AFF32D807047000075
:100CF000EFF3058048B9EFF3108030B9EFF31180BE
:100D000018B9EFF31480C00702D10448007A704785
:100D1000DFF804C000DF7047E11600110800003161
:100D200080B500F0FAF8EFF3058028B9EFF31080F2
:100D300010B9EFF3118010B16FF0050080BDDFF83E
:100D400008C000DF80BD00BFED160011F8B50546F4
:100D5000EFF3058014460E4628B9EFF3108010B962
:100D6000EFF31180F0B1D5B12878FA2817D16FF0E0
:100D70000300EEB1E3B92846FFF77AFDC8B16A6A0D
:100D800000F10C0107463046FFF730FB0CB1F87854
:100D900020703846FD6000F061FA0020F8BD6FF069
:100DA0000300F8BD2846DFF810C03146224600DFB8
:100DB000F8BD6FF00200F8BDED1700112DE9F0410C
:100DC0000646EFF3058090460D4628B9EFF31080F4
:100DD00010B9EFF3118018B3EEB13078FA281AD1B8
:100DE0006FF00307CDB1C3B906F10C0000F008F9AC
:100DF000F0B1726A04460C302946FFF7F7FAF92081
:100E0000002720702046C4E9015684F80380A770AB
:100E100000F024FA01E06FF003073846BDE8F081E6
:100E20003046DFF814C02946424600DFBDE8F081B5
:100E30006FF00207F1E700BFD1190011EFF305824F
:100E40002AB9EFF3108212B9EFF3118212B16FF0E9
:100E500005007047DFF804C000DF70477D1A0011FD
:100E6000EFF3058129B9EFF3108111B9EFF3118187
:100E700011B16FF005007047DFF804C000DF704764
:100E8000091B0011EFF3058129B9EFF3108111B9A6
:100E9000EFF3118109B100207047DFF808C000DFCF
:100EA000704700BFB11B0011EFF3058129B9EFF3C3
:100EB000108111B9EFF3118111B16FF00500704786
:100EC000DFF804C000DF7047191C001100000000AB
:100ED000AFF30F8083B00290019102980138014670
:100EE0000091042814D80099DFE801F00306090CEA
:100EF0000F00AFF30F800CE0AFF30F8009E0AFF30A
:100F00000F8006E0AFF30F8003E0AFF30F8000E047
:100F1000FFE7FFE7FEE7FFF7DBBF7047F0B5A8B1DB
:100F2000002379B3032A2DD803460F3153F8085F05
:100F300021F007012C46EE1A5D6825F00307F61B29
:100F40008E4205D225682346002DF3D1002319E0F7
:100F5000D0E900760E444660384450F8047CB7422D
:100F60003EBF083846605D6845B125F00300114377
:100F7000C450184418600346416002E041EA020090
:100F8000586008331846F0BDB0B560B159B100F1F2
:100F90000804A1F108020023944206D025462468E3
:100FA0002B46002CF8D10020B0BD51F8045C4468F9
:100FB00025F00305641B446013B11068186002E05B
:100FC000002041F8040C0120B0BD18B102460843CE
:100FD000400701D000207047002018290FD310B51A
:100FE0008B18A3F10804946043F8080C102493684C
:100FF000C2E900145C60D0600120BDE81040704779
:1010000010B5002817D0014600F1140252E8000F75
:1010100010B9BFF32F8F04E0036842E8003404B135
:10102000F4E740B1043151E8002F531C41E800348B
:1010300004B1F8E710BD002010BDB0B500281ED0E7
:10104000C2688A421BD802698A4218D900F1140288
:1010500013680B60BFF35F8F52E8003F0C689C423F
:10106000F6D142E8001505B1F2E7043050E8001F60
:101070004A1E40E8002303B1F8E70020B0BD6FF03E
:101080000300B0BDB0B598B191B18AB1044600205B
:101090009BB1C4E9001004F1080002FB0135636153
:1010A0002CC0481E30B19918196001380B46F9E779
:1010B0000020B0BD002018600120B0BDF8B5044686
:1010C000807848B3E56821462846FFF71DFC05F106
:1010D0000C060020207021463046FFF7AEFFA868BE
:1010E000C8B13046FFF78CFFA8B10446284600F08F
:1010F000B3F9FFF731FC304600F0F2F941680646DB
:101100006A6A04F10C00FFF771F9F920A7702070EA
:10111000B068E07021E0F8BDA568A868E8B1407843
:1011200083281AD1284600F097F9FFF715FC3046BE
:1011300000F0D6F9064640686A6A04F10C01FFF730
:1011400055F9B06808B1E1780170277005F10C001D
:101150002146BDE8F840FFF770BF28462146BDE8AC
:10116000F840FFF7A5BB000080B507480821D0E98B
:101170001A2000F0A1FBF049C8640021002808BF34
:101180004FF0FF31084680BDF01C0011B0B5C278A9
:10119000920718D5C068C36A90F82120DC78A407AC
:1011A0000AD59C688C4208BF8C682CB194F9204009
:1011B00055B2AC42C8BFE2B25B69002BEED190F8E9
:1011C0002010914200D1B0BD80F82020BDE8B04091
:1011D00000F06BB9B0B5D84CB4F8540004F1560126
:1011E000D1E85F2F12B9BFF32F8F04E0531EC1E87F
:1011F000553F05B1F4E711042BD004F15A01D1E8B1
:101200005F2F531C984200D80023C1E8553F05B119
:10121000F5E790B2E16D51F82000D0B10178F139D5
:101220000829D9D8DFE801F006050905050C0F05E6
:101230001200D1E7216E8847CEE7616E8847CBE781
:10124000A16E8847C8E7E16E8847C5E7216F8847E8
:10125000C2E70020BDE8B04000F0D6B870B5014646
:10126000E54800F15603B0F85420D3E85F4FA2429E
:1012700002D8BFF32F8F04E0651CC3E8565F06B1A8
:10128000F3E7A3B2934214D200F15803D3E85F4FBF
:10129000651CAA4200D80025C3E8565F06B1F5E7F1
:1012A000A2B2C36D43F82210417A39B10121817293
:1012B00070BD0220BDE87040FFF72DBE02484FF020
:1012C0008051016070BD00BF04ED00E010B5012148
:1012D00090F920304170ED491C310A46896841B1CE
:1012E00091F920409C42F8DCC0E902120C31906078
:1012F00004E00021C0E9021202F10801086010BDFB
:10130000B0B54A1C0DD0E14A00232C3215462C689A
:10131000E4B1E569A94221D3491B04F11005234634
:10132000F5E7F149002301F130021446194623681C
:1013300003F11004002BF9D14FF0FF33C3610023F8
:10134000C0E90431C1B101F1100215E0C161002B07
:10135000C0E9044318BF03F110020DE0002BC0E9FF
:101360000443C16118BF03F1100210602CB1E2699F
:10137000511AE16104F114021060B0BDC269016943
:10138000531C0AD021B143694B61CB691A44CA612D
:1013900042693AB9D44AD16207E009B142694A6167
:1013A00042692AB10023116143610021C161704784
:1013B000CD4A1163F9E700BF70B5CB4DEC6A1CB1A3
:1013C000E0690138E06100D070BD04266078133810
:1013D000B6EB301F08D120460178F12901D1C06851
:1013E000FAE72146FFF7D2FE204600F054F82046E7
:1013F00000F06EF8246924B1E0690028E6D00020EE
:101400006061EC6270BD00BF70B5F54E0546746951
:10141000307A65B1022805D194F9200095F92010A1
:10142000814211DC2846BDE8704000F051B8022826
:1014300010D1756A75B194F9200095F92010814298
:1014400008DD284600F027F82046FFF73FFF02207E
:10145000B561687070BD00BF0146806882688A60AF
:1014600002B1D1600021C160704710B591F9203000
:101470000246806840B190F920409C42F8DAC1E908
:1014800002020C30916004E00020C1E9020202F186
:101490000800016010BDC16831B182688A6082684D
:1014A00002B1D1600021C1607047B0B50446054665
:1014B00025B12878F12802D1ED68F9E7B0BD2046C2
:1014C000FFF7E9FF28462146BDE8B040FFF7CDBF52
:1014D000014601204870F7481C30FFF7C6BF00BF27
:1014E00090F82210C9064FF0200158BF6021806B90
:1014F00008447047EF49886102214170704700BF7E
:1015000010B5EC4C227A022A14D1626A92B1626957
:1015100050701046FFF7F4FE606A8168616211B195
:1015200004F11C02CA600221A06141700021C16067
:10153000012010BD002010BD08000031B0B50446E8
:1015400090F822001546C0064FF0200058BF6020DA
:10155000A26B81502046FFF711FF2046002DBDE809
:10156000B04008BFFFF7B4BFFFF74EBFB0B5FFF7FD
:10157000E7F9D04DE8680130E860FFF71DFF002073
:10158000FFF742FF286D00B18047296C71B1A8694F
:10159000EA6B904205D0C269E86322B9C1610A468C
:1015A00001E0C2691AB1511EC16100D0B0BD297AF3
:1015B0000229FBD16C6A002CF8D090F8200094F836
:1015C00020108142F2D12046FFF765FFE86BFFF75C
:1015D0007FFF2046FFF78EFF286CEC63E061B0BD13
:1015E00080B5FFF7C1FD10B14FF0FF3080BDF64868
:1015F00002490165002080BD08000031211600115C
:1016000082B004466D462046294600224FF0FF3343
:10161000FFF79CFB0028F6D1DDE900108847F2E7D0
:101620002DE9F041E84D6C6C74B36E694FF0010820
:1016300020690138206134B3206920BBE06808B11B
:10164000A1688160686404F11801E86C002200233D
:10165000FFF7B4FB60B1D5E905702146686103204E
:10166000FFF759FC696986EA0700084308BF064688
:10167000E078012811BF84F8018061692046FFF7F6
:101680000FFA6C6CD7E76E61BDE8F081080000319D
:10169000AFF30D8080B54DF804CD81B048F2006005
:1016A000C3F20010007868B9FFE7FFF721FB0228BA
:1016B00007DBFFE748F20061C3F200110120087068
:1016C000FFE7FFE748F20060C3F20010007801B0C6
:1016D0005DF804CBBDE88040AFF32D80704700007B
:1016E000E548007A704700BF080000312DE9F84353
:1016F000DFF8D48598F8080028B101286CD04FF0A5
:10170000FF30BDE8F883374FD7E90B41388AA8F896
:101710005400D7E90202C8F840002046C8F85C200F
:10172000FFF753FC08B1C8F88040D7E90541DFF85E
:10173000B890D7E907562046C847D8F88010002847
:1017400018BF2146C8F8741028463146C847D8F853
:101750008010002818BF2946C8F87810D7E9094139
:101760002046C847D8F88010002818BF21467C6B57
:10177000C8F87C101CB1FFF7E9F8C8F88440BC6BCE
:101780001CB1FFF7E3F8C8F88840FC6B1CB1FFF709
:10179000DDF8C8F88C403C6C1CB1FFF7D7F8C8F8EE
:1017A00090407C6C1CB1FFF7D1F8C8F89440BC6C39
:1017B0001CB1FFF7CBF8C8F89840FC6C1CB1FFF7E0
:1017C000C5F8C8F89C403C6D1CB1FFF7BFF8C8F8DD
:1017D000A040012088F808000020BDE8F88300BF81
:1017E00008000031F01C0011CB0F00112DE9F04171
:1017F000002848D004460078FA2844D10F46002932
:1018000041D020461E461546FFF732F800283FD04B
:10181000804620464146FFF777F8626A08F10C01DE
:101820003846FEF7E3FD15B198F80300287004F17F
:101830000C060025414688F800503046FFF7FDFBB6
:10184000A06810B33046FFF7DBFB0025E8B1064681
:10185000FFF788F8002101220746FFF76FFE3846A0
:10186000FFF73EFE41680746626A06F10C00FEF78C
:10187000BDFDF92031463070B868F0702046B57073
:10188000FFF716F801E06FF003052846BDE8F08188
:1018900066B183203146FFF733FE20B1DD48416950
:1018A0002046FFF7E2FD6FF00105EEE76FF002055D
:1018B000EBE700BF080000312DE9F84F48B10D46B5
:1018C00039B10446B0FA80F0B5FA85F10844202811
:1018D00003D200263046BDE8F88F05F10F0020F056
:1018E000030808FB04F95AB19668D2F800A0D2E9BF
:1018F00004707EB1B107ECD1D1683429E9D30CE092
:101900004FF0000A0027F049D1F8A00058B1FFF7C6
:1019100077FB0EE0D1680029DBD157B3B907D8D1E6
:101920004845D6D327E0D1F8800034210122FFF7C3
:10193000F5FA06464FF0010B67BB5EB3CDF800A089
:101940004946DFF884A30022DAF87C00FFF7E6FAC4
:10195000074620B138464946FEF7C6FD16E0BBF102
:10196000000F12D0DAF8A00050B13146FFF765FB46
:101970000BE00028ADD1002EC5D04FF0000BDBE707
:10198000DAF880003146FFF7FFFA0026DDF800A004
:101990000BF1020B002E3FF49DAF00202146C6E95B
:1019A00009504246C6E90B003B46C6E901A0FA20B1
:1019B000307006F10C0086F802B0FFF763FBC248F6
:1019C0000249016786E700BF08000031BD10001121
:1019D0002DE9F04118B304460078FA281FD10F46CC
:1019E000E9B1A0681E469046F0B1407883281BD12B
:1019F000FEF7B8FF0021012205460026FFF79EFDF5
:101A00002846FFF76DFD05464068626A3946FEF7D5
:101A1000EDFCA86828B180F80080002601E06FF096
:101A200003063046BDE8F08104F10C00FFF7E8FA48
:101A300080B1626A05460C303946FEF7D7FCF920C2
:101A4000002628702046294685F80380AE70FEF7F0
:101A50002FFFE6E766B193203146FFF751FD20B135
:101A6000994841692046FFF700FD6FF00106D8E76D
:101A70006FF00206D5E700BF0800003170B50446DC
:101A8000914845694DB32CB32078F52822D1207EAA
:101A900030B30E46E178CA0702D0E268AA422BD0E2
:101AA00066B388070AD5E06895F9201090F92020E0
:101AB0008A42BCBF80F82010FFF7F7FC5320314664
:101AC000FFF71EFD18B120462946FFF7CEFC6FF048
:101AD000010070BD6FF0030070BD4FF0FF3070BDAE
:101AE0000020C4E90350E86A606100B1046101208C
:101AF000EC622076002070BDFF2802D16FF002005A
:101B000070BD0130F5E700BFB0B520B304460078E2
:101B1000F52820D1207EB8B36169E06809B1226957
:101B20000A6100F12C0223691546002B18BF03F14E
:101B30001405296090F8211012687AB1D3789B07B8
:101B400007D593682BB193F920304DB2AB42C8BF93
:101B5000D9B21432F0E76FF00300B0BD90F8202046
:101B60008A421CBF80F82010FFF79FFCA06840B19C
:101B70002046FFF771FC6FF002010022FFF7DEFC48
:101B8000F4E70020FFF740FCA17800202070C9078F
:101B90000DD04D49D1F8940018B12146FFF74DFA08
:101BA00004E0D1F880002146FFF7EEF90020B0BD37
:101BB00070B550B18468D0E900657CB1A10710D13F
:101BC000C16800201C2917D270BD002500263E499F
:101BD000D1F8940038B1FFF713FA0AE0C068002882
:101BE000F5D0002070BDD1F880001C210122FFF744
:101BF00095F9044658B10120A070F520207004F139
:101C0000080011216660E570FEF794FC00E00024F6
:101C1000204670BD0800003170B504462A4840696E
:101C200070B154B12178F52907D1217E11B1E26854
:101C3000824209D06FF0020404E06FF0030401E077
:101C40004FF0FF34204670BD01392176090601D0DE
:101C50000024F7E7616909B122690A6100F12C02E9
:101C600023691546002B18BF03F11405296090F86D
:101C70002110126862B1D3789B0707D593682BB106
:101C800093F920304DB2AB42C8BF19461432F0E789
:101C900080F82010A06888B12046FFF7DDFB002106
:101CA000002205460026FFF749FCE86AC4E903560E
:101CB000606100B104610120EC6220760020002404
:101CC000FFF7A2FBBEE700BF08000031AFF30F80B3
:101CD000F1EE100A4FF6FF71C0F2C03120EA0100A8
:101CE00040F0407040F48020E1EE100A70470000A0
:101CF00001000000E803000005000000B000003112
:101D000010000000000000000000000000000000C3
:101D1000000000000000000000000000F0000031A2
:101D20000080000000000000000000000000000033
:101D300000000000000000000000000000000000A3
:101D400000000000000C00009C1D0011D81D0011B7
:101D500001160011E1150011C01D00110400000062
:101D600074810031FC81003100000000000000009F
:101D70000000000000000000000000000000000063
:101D80000000000000000000000000000000000053
:101D9000F0800031248100310000000000000000CC
:101DA0000000000074810031440000000082003116
:101DB0000002000001000000000000000000000020
:101DC0000000000000000000F0800031340000003E
:101DD00024810031500000000000000000000000DD
:101DE000B88100314400000000840031000200008E
:101DF000280000000000000000000000525458209D
:101E000056352E352E340000281E001100000031FA
:101E1000B000000088020011D81E0011B00000318F
:101E200054850000A802001140787D0140787D01B2
:101E3000FC1D0011D4B3FB020000000000000000F4
:101E40000000000000000000000000000000000092
:101E50000000000000000000000000000000000082
:101E60000000000000000000000000000000000072
:101E70000000000000000000000000000000000062
:101E80000000000000000000000000000000000052
:101E90000000000000000000000000000000000042
:101EA0000000000000000000000000000000000032
:101EB0000000000000000000000000000000000022
:101EC0000000000000000000000000000000000012
:101ED0000000000000000000000000000000000002
:0400000511000241A3
:00000001FF
