:020000041100E9
:10000000B8090031D1150011A91500118115001191
:10001000A115001129100011491800112116001115
:100020000000000000000000000000001916001190
:100030005910001100000000C91500112916001107
:10004000B9150011B1150011F9150011A91600110B
:10005000B1160011B91600110000000000000000E8
:100060000000000091150011C11500119915001133
:1000700021100011000000003110001100000000EC
:10008000B913001100000000000000000000000093
:100090000000000000000000000000000000000060
:1000A000000000000000000000000000C116001168
:1000B0003910001141100011000000000000000084
:1000C000A116001109170011A917001181170011BD
:1000D000191800118917001121180011911700112A
:1000E000291800119917001131180011D1160011AB
:1000F000D9160011E1160011E9160011F1160011D0
:1001000001170011B113001189150011C916001152
:1001100041180011011600110916001111160011E5
:1001200000000000491000115110001100000000F3
:1001300000000000000000000000000000000000BF
:1001400000000000000000000000000000000000AF
:100150000000000041140011C914001151150011D4
:1001600079150011C1130011F913001101140011C8
:100170000914001111140011191400112114001197
:10018000291400113114001139140011C913001180
:10019000D1130011D9130011E1130011E91300115B
:1001A000F113001149140011811400118914001178
:1001B0009114001199140011A1140011A914001137
:1001C000B1140011B9140011C1140011511400111F
:1001D00059140011611400116914001171140011F7
:1001E00079140011D1140011091500111115001115
:1001F00019150011211500112915001131150011D3
:10020000391500114115001149150011D9140011BB
:10021000E1140011E9140011F1140011F914001196
:100220000115001159150011611500116915001112
:1002300071150011A117001139180011F9160011DC
:1002400000000000000000000000000000000000AE
:10025000000000000000000000000000000000009E
:10026000000000000000000000000000000000008E
:10027000000000000000000000000000000000007E
:10028000000000000000000000000000000000006E
:10029000000000000000000000000000000000005E
:1002A000000000000000000000000000000000004E
:1002B000000000000000000000000000000000003E
:1002C000000000000000000000000000000000002E
:1002D000000000000000000000000000000000001E
:1002E000000000000000000000000000000000000E
:1002F00000000000000000000000000000000000FE
:1003000000000000000000000000000000000000ED
:1003100000000000000000000000000000000000DD
:1003200000000000000000000000000000000000CD
:1003300000000000000000000000000000000000BD
:1003400000000000000000000000000000000000AD
:10035000000000000000000000000000000000009D
:10036000000000000000000000000000000000008D
:10037000000000000000000000000000000000007D
:10038000000000000000000000000000000000006D
:10039000000000000000000000000000000000005D
:1003A000000000000000000000000000000000004D
:1003B000000000000000000000000000000000003D
:1003C0005118001159180011611800116918001115
:1003D0007118001179180011811800118918001185
:1003E00000F002F800F05EF814A696E8000CB244A3
:1003F000B344DA4501D100F055F8BAE80F000FA672
:1004000096E83000A5EB040504EB0607AAEB070409
:10041000A7F101074FEA15154FEA3414A4F10104BE
:10042000AC4201D300F03EF813F0010F18BFFB1AE5
:1004300043F0010300F001F8DBE71847141800004F
:1004400034180000103A24BF78C878C1FAD852078F
:1004500024BF30C830C144BF04680C60704700003E
:10046000704700000023002400250026103A28BF12
:1004700078C1FBD8520728BF30C148BF0B60704716
:100480001FB501F0A9FB0348034900F0EDFB00F0A4
:100490005FF91FBDA8010031A805003110B500F0BB
:1004A000C0F910BDDFF80CD0FFF7EAFF01F058FAF1
:1004B00000F086FBB809003103B4FFF7EFFF03BC7F
:1004C00000F0A4FC10B5044603E001F077FB401CEB
:1004D00009D014F8010B05490028F6D1BDE81040F9
:1004E0000A2001F06BBB4FF0FF3010BD70000031EF
:1004F00030B44FF0013C50F8042B51F8043BCCFAD7
:1005000052F4D51A20D1FCB950F8042B51F8043B11
:10051000CCFA52F4D51A17D1B4B950F8042B51F8CB
:10052000043BCCFA52F4D51A0ED16CB950F8042B16
:1005300051F8043BCCFA52F4D51A05D1002CDAD08C
:1005400030BC4FF00000704729BAB1FA81F111F0C8
:100550001801D1F120008440F2D1CA40CB4012F002
:10056000FF0213F0FF0330BCD01A70472DE9F05F93
:10057000054617460C46C86820F4201040F4800059
:10058000C860800602D5084600F05BFAE06841F2D8
:1005900082014FF0FF3A0140022903D0204600F0CB
:1005A000EDF9B9E000F42041B1F5004F0FD1C003DF
:1005B00006D56168E06A884200D80846606006E0B7
:1005C0002069E0626060606901F06AF9A061A0687A
:1005D0000022EEB200280DDAE1688B050AD4C04390
:1005E000A06041F490302260E0606068411C61606E
:1005F0000670AAE0E0689146226040F40050E06096
:10060000206978BB606901F04FF904F124054FF0CF
:100610000108A8B1A08910F4407F08D0E06900F07B
:1006200033F9206118B1E06840F4006017E0C4F8C5
:100630001C802561E06820F4407040F480600EE08A
:10064000E06900F021F900282061F0D0E06840F472
:10065000006010F4407FE06002D140F48070E06000
:1006600020696060E06825696FF0010BC1051ED547
:100670006168E06A884200D80846411B04D02246DF
:10068000284600F085F9E8BB1FB1E562C4E90159CD
:1006900059E0681CE0626060E069401EA060E068AC
:1006A00040F48030E06030462E70BDE8F09F17B116
:1006B00000F480320AE06068411C61600670E06806
:1006C0000A2E40F48030E06006D00022E16A6068C3
:1006D000814203D90B4602E00122F7E70346B4F852
:1006E0000CC05B1B5FEA4C5C04D4D4F81CC09C4576
:1006F00000DD02B3814200D80146002BA1EB0008C7
:10070000E56200E008E0C4E9015907DD2246194628
:10071000284600F03DF908B15046C6E7B8F1000F91
:1007200009D0A169E5626560A1EB0800A061E068FD
:1007300040F01000E06047B16168A069E562491BC4
:1007400008446560A0615846AFE73046ADE7000059
:1007500010B54248542100F043FA4148542100F0BA
:100760003FFA4048542100F03BFA3F493B483C4A9D
:100770003F4B08603D490A603A491960531C0365C4
:10078000481C1065012008653B48344A39A178446B
:1007900000F078F920B9384878440A3800F019FA9E
:1007A00037482F4A35A1784400F06CF920B9344815
:1007B00078440A3800F00DFA32482A4A2FA17844CA
:1007C00000F060F920B92F4878440A3800F001FAA7
:1007D00040232248DC000021224600F0ABF820B183
:1007E00025487844543800F0F4F91D482246402347
:1007F000002100F09FF820B121487844543800F0DF
:10080000E8F9184822461023002100F093F8002848
:1008100006D01C487844BDE81040563800F0D9B9DD
:1008200010BD104870B5006D20F001040B4800F0B9
:10083000A1F90B4800F09EF90A4800F09BF909E085
:10084000206D20F00105204600F094F9204600F0CC
:100850004AF82C46002CF3D170BD00001C0000317A
:1008600070000031C400003100000031040000318C
:100870000800003172000000AE1400007700000094
:100880009D1400007614000070B5064600F0D0F903
:10089000056806F10B0020F00704B4429CBF00205D
:1008A00070BD2B466A68BAB11068A04210D304F13B
:1008B000080188423CBF5068586007D3516810193E
:1008C00041601168091B016058601460101D70BD03
:1008D00013465268002AE7D12146284600F0B0F9B5
:1008E0000028DED170BD70B50446051F00F0A0F9E8
:1008F0000068002C14BF446870BD002C18BFAC42C7
:100900003CBF20466468F8D301680A18AA4218BFA1
:10091000456003D12A6805461144016028684119E1
:10092000A1421CBF6C6070BD6168696021680844A9
:10093000286070BD70B5C468A50713D0650211D4D6
:10094000B2F5807F09D0B2F5007F06D0B2F5806F96
:1009500008D1012300F1240106E05D1E6FF07F46FF
:10096000B54201D3012070BD0161C361416024F42F
:1009700070611143C160002070BD0000C16821F4A6
:10098000001141F08001C160002181600160704769
:100990002DE9F74F15460C464FF0FF3B3848D76816
:1009A000D2F814A0074209D05046A96900F0B8FF58
:1009B000002819DB3248C0430740EF604FF0004980
:1009C0006FF000484C4501D3464600E026460099AA
:1009D0003B465046324600F0A7FFA96920F000428E
:1009E000B21A1144A96128B12846FFF7C7FF58463B
:1009F000BDE8FE8FA41BE5D10020F9E770B50446E1
:100A00000569C06A6168884200D80846E16821F437
:100A10002011E160C90312D5A84208D02246411B2B
:100A20002846FFF7B5FF10B14FF0FF3070BD002032
:100A3000E562C4E90150E06820F48030E060002005
:100A400070BD10B50446C06820F02000E060A16AC7
:100A5000A06988420DD02046FFF7D0FFE06820F45F
:100A6000405040F01000E060A06AA0612069E062A0
:100A7000606044F24001E0688843E06010BD00001F
:100A8000100002002DE9F0410C461646070047D041
:100A9000104600F06FF82078611C61280AD0722897
:100AA00002D077283CD102E00125002405E0022590
:100AB000042402E0082448F2020511F8010B2B2857
:100AC00006D0622809D011F8010C74280AD00BE076
:100AD00045F0030544F00204EFE745F0040544F057
:100AE0000104EAE744F010043846214600F0E4FE31
:100AF000411C15D00021316171604FF40071F56027
:100B0000F1617061200704D530460222002100F017
:100B1000E1F8306D40F0010030653046BDE8F0810D
:100B20000020FBE72DE9F0410D460646104C206DF4
:100B3000C10704D0410804D020F00104F7E72246A1
:100B40000EE05420FFF7A0FE07000ED0206D47F006
:100B50000101084354212065384600F041F83A4627
:100B600029463046BDE8F0418CE70020D6E700007A
:100B70001C0000312DE9F04704464FF0FF380026F5
:100B8000C568D4E90497A80718D02046FFF736FFB8
:100B9000384600F07DFE002800DA4646280502D5DA
:100BA0004846FFF7A0FE4C21204600F019F8206DC2
:100BB00020F0010020653046BDE8F0874046FBE7A5
:100BC00010B50446AFF300802046BDE81040FFF7A3
:100BD00073BC10B500F000F9BDE8104000F0F6B8A5
:100BE0004FF0000200B5134694469646203922BFC6
:100BF000A0E80C50A0E80C50B1F12001BFF4F7AF11
:100C0000090728BFA0E80C5048BF0CC05DF804EBF2
:100C1000890028BF40F8042B08BF704748BF20F860
:100C2000022B11F0804F18BF00F8012B7047000015
:100C30000048704720010031704770477047704787
:100C400038B504460A4600206946AFF30080002804
:100C500008BF38BD02460099204600F0DEF80120AA
:100C600038BD012000F02DB9F8B5AFF3008005467E
:100C700000200C460C2000BF0646A819A0420DD942
:100C8000324669460020AFF30080070008BF00F03D
:100C900018F90098A04218BF0546C419FFF7C8FF0D
:100CA00005600746F01D20F007004619284600F0B1
:100CB0000AF8B44208BFF8BDA21B31463868BDE847
:100CC000F84000F0AAB800210160416070470C2094
:100CD000704700002DE9F041044616460D4647696D
:100CE000007B80072ED0384600F0DEFD50BB3EB3BF
:100CF000012E02D0022E25D104E0204600F0A7F8F4
:100D000005441DE0384600F0CBFDE168002841F0C5
:100D10001001E16005DA2046FFF730FE0120BDE852
:100D2000F081C9030BD56268E16A914200D811468F
:100D3000A26911442269891A814200DD08460544EE
:100D4000002D01DA0220EAE7E16A6068E268814288
:100D500006D29103E06203D522F4003141F0100283
:100D6000A6690027AE4213DCE16A814201D90B4635
:100D700000E0034603EB060C2369ACEB030CAC4527
:100D800006DD814201D98C4600E084469C4505D1B0
:100D9000A760276042F02000A5620DE0AD1BE66968
:100DA000AE1B8142A66000D90846C01A281A2060EE
:100DB0005819606022F0200003490840E0600020DC
:100DC00084F84870ABE70000BFCFD7FF002801D000
:100DD00000F01CB87047000010B5014602A000F0FA
:100DE00057F8012010BD0000534947525452454462
:100DF0003A2052656469726563743A2063616E27B4
:100E000074206F70656E3A200000000001491820C0
:100E1000ABBEFEE7260002007047034640688C46E2
:100E2000002818BF88423CBF03464068F8D31868C2
:100E30001844884207D00CF1030020F00700001D81
:100E4000411A521A0146081D0A60FFF74CBD10B541
:100E50000146C268900703D0900607D5886A0AE069
:100E600000F03EF801210160881E10BD8B694868C2
:100E700018440B69C01A91F848301BB191F8491019
:100E8000401A10BD1103FCD50028FADD401E10BD2C
:100E900070B505460C460A2000E06D1C00F018F8FD
:100EA00035B128780028F8D102E0641C00F010F871
:100EB00014B120780028F8D1BDE870400A2000F075
:100EC00007B810B500F010F8BDE81040FFF77EBF7E
:100ED00008B569468DF800000320ABBE08BD0000D0
:100EE000004870471801003110B5012805D00021D5
:100EF00003A0FFF7CDFF012010BD09A1F8E7000016
:100F000053494752544D454D3A204F7574206F66F2
:100F10002068656170206D656D6F7279000000005A
:100F20003A2048656170206D656D6F727920636F3E
:100F300072727570746564000120704700000000D3
:100F400040F20420C0F200307047000000000000B2
:100F5000B0B540F28811C3F20011097801292DD1F2
:100F6000022831D001282CD040BB40F21404C3F237
:100F70000014204600F07CFD204600F095FD204640
:100F800000F0BAFD204600F0F3FD4EF204100221FD
:100F9000CEF20000C0F880100421BFF34F8FBFF3E2
:100FA0006F8FC0F8801040F28411BFF34F8FBFF3F2
:100FB0006F8FC3F2001100200870B0BD4FF0FF30FA
:100FC000B0BD6FF00300B0BD40F28415C3F2001550
:100FD000287808B10020B0BD40F20C0040F21404A3
:100FE000C3F20010C3F200140168204600F020FD97
:100FF0004EF204100221CEF200000422C0F880114B
:10100000C0F8802101600260204600F03DFD2046CE
:1010100000F056FD012028700020B0BD0000000047
:10102000FEE7000000000000FEE7000000000000F6
:10103000FEE7000000000000FEE7000000000000E6
:10104000FEE7000000000000FEE7000000000000D6
:10105000FEE7000000000000FEE7000000000000C6
:1010600010B540F288120446C3F200124FF0FF3070
:101070001278012A40F06F8040F28412C3F200120D
:101080001278002A08BF10BD50FA84F26FF00300F6
:10109000182A00F26080DFE802F00D5E5E5E5E5EA0
:1010A0005E5E5E5E5E5E5E5E5E5E5E5E5E5E2419DF
:1010B0005E2E3D0040F21400C3F2001000F044FD2B
:1010C00000281CBF6FF0070010BD33E0012946D097
:1010D000002941D140F21400C3F2001000F00CFDD1
:1010E00028E0012947D0B9BB40F21400C3F2001038
:1010F00000F03EFD1EE040F28C100021C3F2001013
:1011000040F29012C3F20012016040F29410C3F258
:1011100000100DE040F298100021C3F2001040F2E0
:101120007C12C3F20012016040F28010C3F2001082
:101130000160116014F4E06F1CBF6FF0030010BD7C
:1011400014F4405F1CBF6FF0090010BD14F4404060
:1011500018BF6FF00A0010BD6FF0040010BD40F220
:101160001400C3F2001000F0D3FC00281CBF4FF0A5
:10117000FF3010BDDEE740F21400C3F2001000F0B3
:1011800003FD00281CBF4FF0FF3010BDD2E7000068
:10119000002070470000000040F28010C3F20010F1
:1011A000006870470000000040F28C1040F2981177
:1011B000C3F20010C3F200110068096800285FEA5A
:1011C0000F90002918BF0230704700000000000097
:1011D00040F29410C3F20010006870470000000055
:1011E00040F278110122C3F20011086040F2881128
:1011F000C3F2001100200A707047000000000000D8
:10120000FFF7A6BE000000002DE9F04182B040F2D9
:1012100088124FF0FF34C3F200121278012A36D13F
:10122000064640F28410C3F20010007878B36FF0E5
:10123000040466B3884651B340F214000024C3F29C
:1012400000108DF8074000F073FC01280FD140F228
:1012500014070DF10705C3F2001700BF38462946F1
:1012600000F03EFC384600F063FC0128F6D040F266
:10127000981040F28011C3F20010C3F20011066012
:1012800040F27C10C3F200100C60C0F800802046D1
:1012900002B0BDE8F081000040F28812C3F20012F3
:1012A0001278012A4FF0FF320BD140F28413C3F2BF
:1012B00000131B782BB16FF00402002818BF00291F
:1012C00001D11046704780B540F28C12C3F2001273
:1012D000106040F29012C3F20012116040F29411BB
:1012E000C3F2001100220A60017840F21400C3F238
:1012F000001000F059FC00285FEA0FA2BDE8804012
:1013000010467047000000006FF0030070470000B7
:1013100040F2841040F28811C3F20010C3F20011B1
:101320004FF0FF320078097800284FF0FF3018BFE7
:101330006FF00300002950EA12807047000000009F
:10134000B0B540F28815C3F200152878012825D1E0
:1013500040F21404C3F20014204600F089FB20463A
:1013600000F0A2FB204600F0C7FB204600F000FC86
:101370004EF284100221CEF2000001600421BFF37E
:101380004F8FBFF36F8F016040F28410BFF34F8F18
:10139000BFF36F8FC3F200100021017040F278118B
:1013A0000020C3F2001100222A700A60B0BD0000C4
:1013B000FEE7000000000000FEE700000000000063
:1013C000FEE7000000000000FEE700000000000053
:1013D000FEE7000000000000FEE700000000000043
:1013E000FEE7000000000000FEE700000000000033
:1013F000FEE7000000000000FEE700000000000023
:10140000FEE7000000000000FEE700000000000012
:10141000FEE7000000000000FEE700000000000002
:10142000FEE7000000000000FEE7000000000000F2
:10143000FEE7000000000000FEE7000000000000E2
:10144000FEE7000000000000FEE7000000000000D2
:10145000FEE7000000000000FEE7000000000000C2
:10146000FEE7000000000000FEE7000000000000B2
:10147000FEE7000000000000FEE7000000000000A2
:10148000FEE7000000000000FEE700000000000092
:10149000FEE7000000000000FEE700000000000082
:1014A000FEE7000000000000FEE700000000000072
:1014B000FEE7000000000000FEE700000000000062
:1014C000FEE7000000000000FEE700000000000052
:1014D000FEE7000000000000FEE700000000000042
:1014E000FEE7000000000000FEE700000000000032
:1014F000FEE7000000000000FEE700000000000022
:10150000FEE7000000000000FEE700000000000011
:10151000FEE7000000000000FEE700000000000001
:10152000FEE7000000000000FEE7000000000000F1
:10153000FEE7000000000000FEE7000000000000E1
:10154000FEE7000000000000FEE7000000000000D1
:10155000FEE7000000000000FEE7000000000000C1
:10156000FEE7000000000000FEE7000000000000B1
:10157000FEE7000000000000FEE7000000000000A1
:10158000FEE7000000000000FEE700000000000091
:10159000FEE7000000000000FEE700000000000081
:1015A000FEE7000000000000FEE700000000000071
:1015B000FEE7000000000000FEE700000000000061
:1015C000FEE7000000000000FEE700000000000051
:1015D00040F6B810C3F2001080F3098840F2C05002
:1015E000C3F2001080F30A8880F30B8800F020F823
:1015F000FEF7F6FE00000000FEE70000000000001D
:10160000FEE7000000000000FEE700000000000010
:10161000FEE7000000000000FEE700000000000000
:10162000FEE7000000000000FEE7000000000000F0
:101630004EF6145140F20000CEF20001C1F200104B
:1016400040F2333241F80C0C4EF20030CEF2010081
:10165000036823EA020202604A6F42F470024A679A
:10166000026842F010020260086840F20C0240F486
:10167000002008600868C3F2001240F4802008606F
:10168000BFF34F8F40F2100047F64001BFF36F8F5A
:10169000C3F20010C0F27D111160016070470000BC
:1016A000FEE7000000000000FEE700000000000070
:1016B000FEE7000000000000FEE700000000000060
:1016C000FEE7000000000000FEE700000000000050
:1016D000FEE7000000000000FEE700000000000040
:1016E000FEE7000000000000FEE700000000000030
:1016F000FEE7000000000000FEE700000000000020
:10170000FEE7000000000000B0B582B040F2140017
:101710000021C3F2001000F073F940F29814C3F2F4
:101720000014206810B340F28015C3F20015296838
:10173000014440F21400C3F2001000F0D1F940F26D
:101740007C102968C3F200100131296000688142D1
:1017500014D140F27810C3F200100168002020601C
:1017600061B1022002B0BDE8B040084740F2140069
:101770000DF10701C3F2001000F0B2F902B0B0BDE4
:10178000FEE7000000000000FEE70000000000008F
:10179000FEE7000000000000FEE70000000000007F
:1017A000FEE700000000000080B540F214000121B7
:1017B000C3F2001000F024F940F28C1EC3F2001EA8
:1017C000DEF80010E9B140F2941340F2901CC3F22D
:1017D0000013C3F2001C1A68DCF8000001321A6022
:1017E00082420FD140F27810C3F20010016800204D
:1017F0000029CEF8000008BF80BD0120BDE8804070
:10180000084780BD895C40F21400C3F20010BDE8B7
:10181000804000F0C9B90000FEE7000000000000B1
:10182000FEE7000000000000FEE7000000000000EE
:10183000FEE7000000000000FEE7000000000000DE
:10184000FEE7000000000000FEE7000000000000CE
:10185000FEE7000000000000FEE7000000000000BE
:10186000FEE7000000000000FEE7000000000000AE
:10187000FEE7000000000000FEE70000000000009E
:10188000FEE7000000000000FEE70000000000008E
:1018900048F20401401A10F1030F5FEA2FA07047CD
:1018A000002070470000000048F20101401A0328A0
:1018B0005FEA2F907047000018B310B50446007817
:1018C0003A2821D141F640412046C1F20011FEF7ED
:1018D0000FFEE0B141F647412046C1F20011FEF78C
:1018E00007FEB8B141F638412046C1F20011FEF7BB
:1018F000FFFD01464FF0FF30002908BF48F203000A
:1019000010BD4FF0FF3070474FF0FF3010BD48F270
:10191000010010BD48F2020010BD000000000000F0
:101920004FF0FF307047000048F2030398420FD099
:10193000B0B50D4648F2020188420BD114462AB1D7
:1019400015F8010B00F040F8013CF9D10020B0BDC2
:10195000002070474FF0FF30B0BD000000000000D5
:1019600080B500F011F802A0FEF7ACFD002080BDAC
:101970000D0A3D2048656C6C6F20576F726C6420B7
:101980003D0D00000000000010B541F6F8340020C5
:10199000C1F20014A168884748B92169022088472C
:1019A00028B9A46A01204FF4E131A04710B14FF0EB
:1019B000FF3010BD15200121A04700285FEA0FA0CD
:1019C00010BD000000000000B0B582B041F6F8354F
:1019D0000446C1F200158DF807000DF10700012142
:1019E0006A69904710B14FF0FF3404E02D6A00BFE0
:1019F000A8470128FCD1204602B0B0BD000000007D
:101A000042681278D20709D0022988BF704700685F
:101A100049B203A2006852F82110C160704700BFAC
:101A200002000000010000000300000000000000B0
:101A3000002984464FF0010008BF704780B5DCE9FB
:101A4000003ED3E90032CEF80410CEF80820B1FBF6
:101A5000F2F11961996821F0030199600321D960BD
:101A6000DCF8041008600020BDE8804070470000EA
:101A700041680978C90708BF704700680068816835
:101A800021F008018160704741680978C90701D1D8
:101A90000320704700680068816841F00801816098
:101AA000002070470000000041680978C90708BF9E
:101AB000704700680068816821F004018160704708
:101AC00041680978C90701D10320704700680068A0
:101AD000816841F00401816000207047000000002F
:101AE000006800684268920701D4042070470068CB
:101AF000087000207047000041680978C90708BFD6
:101B0000704700680068816821F0020181607047B9
:101B100041680978C90701D103207047006800684F
:101B2000816841F0020181600020704700000000E0
:101B300041680978C90701D1002070470068006832
:101B4000406800F00200704751B142681378DB072B
:101B500001D1032070475368B3FBF1F3102B01D27E
:101B600002207047006891600068036100207047A0
:101B700041680978C90708BF704700680068816834
:101B800021F001018160704741680978C90701D1DE
:101B90000320704700680068816841F0010181609E
:101BA0000020704700000000006800684268D2070B
:101BB00002D1016000207047042070478A68002A23
:101BC00002DC0022FEF7D2BC521E8A604A68C0B214
:101BD000531C4B6010707047F1EE100A4FF6FF7106
:101BE000C0F2C03120EA010040F0407040F4802093
:101BF000E1EE100A70470000410F0011390F00118B
:101C0000E11100114113001101120011991200118C
:101C10000912001111130011D111001199110011B5
:101C200061100011A9110011091300119111001187
:101C30000030305900C201003A535444455252001A
:101C40003A535444494E003A5354444F55540000BB
:101C5000701C0011000000311C0000004404001141
:101C60008C1C00111C0000318C0100006404001168
:101C700000000000000000000000000040787D012E
:101C800040787D01301C00119C01003100000000F3
:101C90000000000000000000000000000000000044
:04000005110003E102
:00000001FF
